{
  "contractName": "MaterialProvider",
  "abi": [
    {
      "constant": true,
      "inputs": [],
      "name": "materialListCount",
      "outputs": [
        {
          "internalType": "uint256",
          "name": "",
          "type": "uint256"
        }
      ],
      "payable": false,
      "stateMutability": "view",
      "type": "function"
    },
    {
      "constant": true,
      "inputs": [],
      "name": "getMaterialList",
      "outputs": [
        {
          "components": [
            {
              "internalType": "address",
              "name": "materialId",
              "type": "address"
            },
            {
              "internalType": "uint64",
              "name": "aluminiumBars",
              "type": "uint64"
            },
            {
              "internalType": "uint64",
              "name": "stainlessSteelSheets",
              "type": "uint64"
            },
            {
              "internalType": "uint64",
              "name": "bumperRubberBands",
              "type": "uint64"
            },
            {
              "internalType": "uint64",
              "name": "interiorLightBulbs",
              "type": "uint64"
            },
            {
              "internalType": "uint64",
              "name": "displaylEDs",
              "type": "uint64"
            },
            {
              "internalType": "uint64",
              "name": "springs",
              "type": "uint64"
            },
            {
              "internalType": "uint256",
              "name": "creation_date",
              "type": "uint256"
            }
          ],
          "internalType": "struct MaterialProvider.Materials[]",
          "name": "",
          "type": "tuple[]"
        }
      ],
      "payable": false,
      "stateMutability": "view",
      "type": "function"
    }
  ],
  "bytecode": "0x608060405234801561001057600080fd5b506104c7806100206000396000f3fe608060405234801561001057600080fd5b50600436106100365760003560e01c806305fe9d161461003b578063c312fa0a14610059575b600080fd5b610043610077565b60405161005091906103be565b60405180910390f35b610061610263565b60405161006e91906103e0565b60405180910390f35b60606000805480602002602001604051908101604052809291908181526020016000905b8282101561025a5783829060005260206000209060040201604051806101000160405290816000820160009054906101000a900473ffffffffffffffffffffffffffffffffffffffff1673ffffffffffffffffffffffffffffffffffffffff1673ffffffffffffffffffffffffffffffffffffffff1681526020016000820160149054906101000a900467ffffffffffffffff1667ffffffffffffffff1667ffffffffffffffff1681526020016001820160009054906101000a900467ffffffffffffffff1667ffffffffffffffff1667ffffffffffffffff1681526020016001820160089054906101000a900467ffffffffffffffff1667ffffffffffffffff1667ffffffffffffffff1681526020016001820160109054906101000a900467ffffffffffffffff1667ffffffffffffffff1667ffffffffffffffff1681526020016001820160189054906101000a900467ffffffffffffffff1667ffffffffffffffff1667ffffffffffffffff1681526020016002820160009054906101000a900467ffffffffffffffff1667ffffffffffffffff1667ffffffffffffffff1681526020016003820154815250508152602001906001019061009b565b50505050905090565b60015481565b600061027583836102ef565b6101008301905092915050565b61028b81610434565b82525050565b600061029c8261040b565b6102a68185610423565b93506102b1836103fb565b8060005b838110156102e25781516102c98882610269565b97506102d483610416565b9250506001810190506102b5565b5085935050505092915050565b610100820160008201516103066000850182610282565b50602082015161031960208501826103af565b50604082015161032c60408501826103af565b50606082015161033f60608501826103af565b50608082015161035260808501826103af565b5060a082015161036560a08501826103af565b5060c082015161037860c08501826103af565b5060e082015161038b60e0850182610391565b50505050565b61039a81610466565b82525050565b6103a981610466565b82525050565b6103b881610470565b82525050565b600060208201905081810360008301526103d88184610291565b905092915050565b60006020820190506103f560008301846103a0565b92915050565b6000819050602082019050919050565b600081519050919050565b6000602082019050919050565b600082825260208201905092915050565b600061043f82610446565b9050919050565b600073ffffffffffffffffffffffffffffffffffffffff82169050919050565b6000819050919050565b600067ffffffffffffffff8216905091905056fea365627a7a7231582068c026280865d5ddf51fb111863b74db7e7e2a7f1797cba75d97c5b90d7a762d6c6578706572696d656e74616cf564736f6c63430005100040",
  "source": "// SPDX-License-Identifier: MIT\r\npragma solidity >=0.5.0 <0.8.0;\r\npragma experimental ABIEncoderV2;\r\nimport \"./ProjectOffice.sol\";\r\n\r\n\r\ncontract MaterialProvider {\r\n\r\n    struct Materials{\r\n        address materialId;\r\n        uint64 aluminiumBars;\r\n        uint64 stainlessSteelSheets;\r\n        uint64 bumperRubberBands;\r\n        uint64 interiorLightBulbs;\r\n        uint64 displaylEDs;\r\n        uint64 springs;\r\n        uint256 creation_date;\r\n    }\r\n\r\n    Materials[] materials;\r\n    uint public materialListCount;\r\n\r\n    // function createMaterials(address ads) public returns (address){\r\n\r\n    //     ProjectOffice.Components[] memory components = ProjectOffice(ads).getComponents(); \r\n\r\n    //     for( uint i; i< components.length; i++){\r\n        \r\n    //     uint64 aluminiumBars = components[i].Shafts*4;\r\n    //     uint64 stainlessSteel = components[i].Shafts*6 + components[i].Doors*2;\r\n    //     uint64 rubber = components[i].Doors*2;\r\n    //     uint64 lightBulbs = components[i].Shafts*4;\r\n    //     uint64 lEDs = components[i].Buttons + components[i].Displays;\r\n    //     uint64 springs = components[i].Doors*2;\r\n    //     uint256 creation_date = block.timestamp;\r\n        \r\n    //     Materials memory new_material = Materials(msg.sender, aluminiumBars, stainlessSteel, rubber, lightBulbs, lEDs, springs, creation_date);\r\n\r\n    //     materials.push(new_material);\r\n    //     materialListCount++;\r\n    //     }\r\n    // }\r\n\r\n    function getMaterialList() public view returns (Materials[] memory ){\r\n        return materials;\r\n    }\r\n}",
  "sourcePath": "C:/Users/tardi/Rocket_Elevators_Smart_Contracts/contracts/Materials.sol",
  "compiler": {
    "name": "solc",
    "version": "0.5.16+commit.9c3226ce.Emscripten.clang"
  },
  "schemaVersion": "3.3.2",
  "updatedAt": "2020-12-09T14:26:46.478Z",
  "networkType": "ethereum",
  "devdoc": {
    "methods": {}
  },
  "userdoc": {
    "methods": {}
  }
}