{
  "contractName": "MaterialProvider",
  "abi": [
    {
      "constant": true,
      "inputs": [],
      "name": "materialListCount",
      "outputs": [
        {
          "internalType": "uint256",
          "name": "",
          "type": "uint256"
        }
      ],
      "payable": false,
      "stateMutability": "view",
      "type": "function"
    },
    {
      "constant": true,
      "inputs": [
        {
          "internalType": "uint256",
          "name": "index",
          "type": "uint256"
        }
      ],
      "name": "getMaterials1",
      "outputs": [
        {
          "internalType": "address",
          "name": "",
          "type": "address"
        },
        {
          "internalType": "uint256",
          "name": "",
          "type": "uint256"
        },
        {
          "internalType": "uint256",
          "name": "",
          "type": "uint256"
        },
        {
          "internalType": "uint256",
          "name": "",
          "type": "uint256"
        }
      ],
      "payable": false,
      "stateMutability": "view",
      "type": "function"
    },
    {
      "constant": true,
      "inputs": [
        {
          "internalType": "uint256",
          "name": "index",
          "type": "uint256"
        }
      ],
      "name": "getMaterials2",
      "outputs": [
        {
          "internalType": "uint256",
          "name": "",
          "type": "uint256"
        },
        {
          "internalType": "uint256",
          "name": "",
          "type": "uint256"
        },
        {
          "internalType": "uint256",
          "name": "",
          "type": "uint256"
        },
        {
          "internalType": "uint256",
          "name": "",
          "type": "uint256"
        }
      ],
      "payable": false,
      "stateMutability": "view",
      "type": "function"
    },
    {
      "constant": false,
      "inputs": [
        {
          "internalType": "uint64",
          "name": "controllers",
          "type": "uint64"
        },
        {
          "internalType": "uint64",
          "name": "shafts",
          "type": "uint64"
        },
        {
          "internalType": "uint64",
          "name": "doors",
          "type": "uint64"
        },
        {
          "internalType": "uint64",
          "name": "buttons",
          "type": "uint64"
        },
        {
          "internalType": "uint64",
          "name": "displays",
          "type": "uint64"
        }
      ],
      "name": "createMaterials",
      "outputs": [
        {
          "internalType": "uint256",
          "name": "",
          "type": "uint256"
        }
      ],
      "payable": false,
      "stateMutability": "nonpayable",
      "type": "function"
    }
  ],
  "bytecode": "0x6080604052600060015534801561001557600080fd5b5061064d806100256000396000f3fe608060405234801561001057600080fd5b506004361061004c5760003560e01c80631fdabba1146100515780634d890a651461008457806374a6fe27146100b4578063c312fa0a146100e7575b600080fd5b61006b60048036036100669190810190610429565b610105565b60405161007b94939291906104e7565b60405180910390f35b61009e60048036036100999190810190610452565b610192565b6040516100ab919061052c565b60405180910390f35b6100ce60048036036100c99190810190610429565b610331565b6040516100de9493929190610547565b60405180910390f35b6100ef61039e565b6040516100fc919061052c565b60405180910390f35b60008060008060008086815260200190815260200160002060000160009054906101000a900473ffffffffffffffffffffffffffffffffffffffff1660008087815260200190815260200160002060010154600080888152602001908152602001600020600201546000808981526020019081526020016000206003015493509350935093509193509193565b600080600486029050600060028602600688020190506000600287029050600060048902905060008a878901019050600060028a02905060004290506101d66103a4565b6040518061010001604052803373ffffffffffffffffffffffffffffffffffffffff1681526020018967ffffffffffffffff1681526020018867ffffffffffffffff1681526020018767ffffffffffffffff1681526020018667ffffffffffffffff1681526020018567ffffffffffffffff1681526020018467ffffffffffffffff16815260200183815250905060016000815480929190600101919050555080600080600154815260200190815260200160002060008201518160000160006101000a81548173ffffffffffffffffffffffffffffffffffffffff021916908373ffffffffffffffffffffffffffffffffffffffff1602179055506020820151816001015560408201518160020155606082015181600301556080820151816004015560a0820151816005015560c0820151816006015560e082015181600701559050506001549850505050505050505095945050505050565b6000806000806000808681526020019081526020016000206004015460008087815260200190815260200160002060050154600080888152602001908152602001600020600601546000808981526020019081526020016000206007015493509350935093509193509193565b60015481565b604051806101000160405280600073ffffffffffffffffffffffffffffffffffffffff168152602001600081526020016000815260200160008152602001600081526020016000815260200160008152602001600081525090565b60008135905061040e816105dc565b92915050565b600081359050610423816105f3565b92915050565b60006020828403121561043b57600080fd5b6000610449848285016103ff565b91505092915050565b600080600080600060a0868803121561046a57600080fd5b600061047888828901610414565b955050602061048988828901610414565b945050604061049a88828901610414565b93505060606104ab88828901610414565b92505060806104bc88828901610414565b9150509295509295909350565b6104d28161058c565b82525050565b6104e1816105be565b82525050565b60006080820190506104fc60008301876104c9565b61050960208301866104d8565b61051660408301856104d8565b61052360608301846104d8565b95945050505050565b600060208201905061054160008301846104d8565b92915050565b600060808201905061055c60008301876104d8565b61056960208301866104d8565b61057660408301856104d8565b61058360608301846104d8565b95945050505050565b60006105978261059e565b9050919050565b600073ffffffffffffffffffffffffffffffffffffffff82169050919050565b6000819050919050565b600067ffffffffffffffff82169050919050565b6105e5816105be565b81146105f057600080fd5b50565b6105fc816105c8565b811461060757600080fd5b5056fea365627a7a72315820482318aa821d4645a04e8b5a5d6cd60f118e52bd78f309ca08146c7603c6424d6c6578706572696d656e74616cf564736f6c63430005100040",
  "source": "pragma solidity >=0.5.0 <0.8.0;\r\npragma experimental ABIEncoderV2;\r\nimport \"./ProjectOffice.sol\";\r\n// SPDX-License-Identifier: MIT\r\n\r\n\r\n\r\ncontract MaterialProvider {\r\n\r\n    struct Materials{\r\n        address materialId;\r\n        uint aluminiumBars;\r\n        uint stainlessSteelSheets;\r\n        uint bumperRubberBands;\r\n        uint interiorLightBulbs;\r\n        uint displaylEDs;\r\n        uint springs;\r\n        uint256 creation_date;\r\n    }\r\n\r\n    mapping(uint => Materials) materials;\r\n\r\n    uint public materialListCount = 0 ;\r\n\r\n        function getMaterials1(uint index) public view returns (address, uint, uint, uint){\r\n            return (materials[index].materialId, materials[index].aluminiumBars, materials[index].stainlessSteelSheets,materials[index].bumperRubberBands);\r\n        }\r\n        function getMaterials2(uint index) public view returns (uint, uint, uint, uint256){\r\n            return (materials[index].interiorLightBulbs, materials[index].displaylEDs, materials[index].springs, materials[index].creation_date);\r\n        }\r\n\r\n     function createMaterials( uint64 controllers, uint64 shafts, uint64 doors, uint64 buttons, uint64 displays ) public returns (uint){\r\n\r\n        \r\n         uint64 aluminiumBars = shafts*4;\r\n         uint64 stainlessSteel = shafts*6 + doors*2;\r\n         uint64 rubber = doors*2;\r\n         uint64 lightBulbs = shafts*4;\r\n         uint64 lEDs = buttons + displays + controllers;\r\n         uint64 springs = doors*2;\r\n         uint256 creation_date = block.timestamp;\r\n        \r\n         Materials memory new_material = Materials(msg.sender, aluminiumBars, stainlessSteel, rubber, lightBulbs, lEDs, springs, creation_date);\r\n        \r\n        materialListCount++;\r\n        materials[materialListCount] = new_material;\r\n\r\n        return  materialListCount;\r\n         }\r\n}",
  "sourcePath": "C:/Users/tardi/Rocket_Elevators_Smart_Contracts/contracts/Materials.sol",
  "compiler": {
    "name": "solc",
    "version": "0.5.16+commit.9c3226ce.Emscripten.clang"
  },
  "schemaVersion": "3.3.2",
  "updatedAt": "2020-12-10T04:28:09.881Z",
  "networkType": "ethereum",
  "devdoc": {
    "methods": {}
  },
  "userdoc": {
    "methods": {}
  }
}