{
  "contractName": "Materials",
  "abi": [
    {
      "inputs": [],
      "payable": false,
      "stateMutability": "nonpayable",
      "type": "constructor"
    },
    {
      "constant": true,
      "inputs": [
        {
          "internalType": "bytes32",
          "name": "",
          "type": "bytes32"
        }
      ],
      "name": "commands",
      "outputs": [
        {
          "internalType": "address",
          "name": "material",
          "type": "address"
        },
        {
          "internalType": "string",
          "name": "serial_number",
          "type": "string"
        },
        {
          "internalType": "string",
          "name": "command_type",
          "type": "string"
        },
        {
          "internalType": "string",
          "name": "quantity",
          "type": "string"
        },
        {
          "internalType": "string",
          "name": "creation_date",
          "type": "string"
        }
      ],
      "payable": false,
      "stateMutability": "view",
      "type": "function"
    },
    {
      "constant": true,
      "inputs": [
        {
          "internalType": "bytes32",
          "name": "",
          "type": "bytes32"
        }
      ],
      "name": "parts",
      "outputs": [
        {
          "internalType": "address",
          "name": "material",
          "type": "address"
        },
        {
          "internalType": "string",
          "name": "serial_number",
          "type": "string"
        },
        {
          "internalType": "string",
          "name": "part_type",
          "type": "string"
        },
        {
          "internalType": "string",
          "name": "quantity",
          "type": "string"
        },
        {
          "internalType": "string",
          "name": "creation_date",
          "type": "string"
        }
      ],
      "payable": false,
      "stateMutability": "view",
      "type": "function"
    },
    {
      "constant": false,
      "inputs": [
        {
          "internalType": "string",
          "name": "serial_number",
          "type": "string"
        },
        {
          "internalType": "string",
          "name": "part_type",
          "type": "string"
        },
        {
          "internalType": "string",
          "name": "quantity",
          "type": "string"
        },
        {
          "internalType": "string",
          "name": "creation_date",
          "type": "string"
        }
      ],
      "name": "checkPart",
      "outputs": [
        {
          "internalType": "bytes32",
          "name": "",
          "type": "bytes32"
        }
      ],
      "payable": false,
      "stateMutability": "nonpayable",
      "type": "function"
    },
    {
      "constant": false,
      "inputs": [
        {
          "internalType": "string",
          "name": "serial_number",
          "type": "string"
        },
        {
          "internalType": "string",
          "name": "command_type",
          "type": "string"
        },
        {
          "internalType": "string",
          "name": "quantity",
          "type": "string"
        },
        {
          "internalType": "string",
          "name": "creation_date",
          "type": "string"
        },
        {
          "internalType": "bytes32[6]",
          "name": "part_array",
          "type": "bytes32[6]"
        }
      ],
      "name": "checkCommand",
      "outputs": [
        {
          "internalType": "bytes32",
          "name": "",
          "type": "bytes32"
        }
      ],
      "payable": false,
      "stateMutability": "nonpayable",
      "type": "function"
    },
    {
      "constant": false,
      "inputs": [
        {
          "internalType": "bytes32",
          "name": "product_hash",
          "type": "bytes32"
        }
      ],
      "name": "getParts",
      "outputs": [
        {
          "internalType": "bytes32[6]",
          "name": "",
          "type": "bytes32[6]"
        }
      ],
      "payable": false,
      "stateMutability": "nonpayable",
      "type": "function"
    }
  ],
  "bytecode": "0x608060405234801561001057600080fd5b50611b36806100206000396000f3fe608060405234801561001057600080fd5b50600436106100575760003560e01c8063511314531461005c5780636e730329146102f057806382fb18ef1461035a5780638c431b9f14610630578063cbf1eab61461084e575b600080fd5b6102da6004803603608081101561007257600080fd5b810190808035906020019064010000000081111561008f57600080fd5b8201836020820111156100a157600080fd5b803590602001918460018302840111640100000000831117156100c357600080fd5b91908080601f016020809104026020016040519081016040528093929190818152602001838380828437600081840152601f19601f8201169050808301925050505050505091929192908035906020019064010000000081111561012657600080fd5b82018360208201111561013857600080fd5b8035906020019184600183028401116401000000008311171561015a57600080fd5b91908080601f016020809104026020016040519081016040528093929190818152602001838380828437600081840152601f19601f820116905080830192505050505050509192919290803590602001906401000000008111156101bd57600080fd5b8201836020820111156101cf57600080fd5b803590602001918460018302840111640100000000831117156101f157600080fd5b91908080601f016020809104026020016040519081016040528093929190818152602001838380828437600081840152601f19601f8201169050808301925050505050505091929192908035906020019064010000000081111561025457600080fd5b82018360208201111561026657600080fd5b8035906020019184600183028401116401000000008311171561028857600080fd5b91908080601f016020809104026020016040519081016040528093929190818152602001838380828437600081840152601f19601f820116905080830192505050505050509192919290505050610a6c565b6040518082815260200191505060405180910390f35b61031c6004803603602081101561030657600080fd5b8101908080359060200190929190505050610c7a565b6040518082600660200280838360005b8381101561034757808201518184015260208101905061032c565b5050505090500191505060405180910390f35b61061a600480360361014081101561037157600080fd5b810190808035906020019064010000000081111561038e57600080fd5b8201836020820111156103a057600080fd5b803590602001918460018302840111640100000000831117156103c257600080fd5b91908080601f016020809104026020016040519081016040528093929190818152602001838380828437600081840152601f19601f8201169050808301925050505050505091929192908035906020019064010000000081111561042557600080fd5b82018360208201111561043757600080fd5b8035906020019184600183028401116401000000008311171561045957600080fd5b91908080601f016020809104026020016040519081016040528093929190818152602001838380828437600081840152601f19601f820116905080830192505050505050509192919290803590602001906401000000008111156104bc57600080fd5b8201836020820111156104ce57600080fd5b803590602001918460018302840111640100000000831117156104f057600080fd5b91908080601f016020809104026020016040519081016040528093929190818152602001838380828437600081840152601f19601f8201169050808301925050505050505091929192908035906020019064010000000081111561055357600080fd5b82018360208201111561056557600080fd5b8035906020019184600183028401116401000000008311171561058757600080fd5b91908080601f016020809104026020016040519081016040528093929190818152602001838380828437600081840152601f19601f8201169050808301925050505050505091929192908060c001906006806020026040519081016040528092919082600660200280828437600081840152601f19601f8201169050808301925050505050509192919290505050610db4565b6040518082815260200191505060405180910390f35b61065c6004803603602081101561064657600080fd5b81019080803590602001909291905050506110e9565b604051808673ffffffffffffffffffffffffffffffffffffffff1673ffffffffffffffffffffffffffffffffffffffff16815260200180602001806020018060200180602001858103855289818151815260200191508051906020019080838360005b838110156106da5780820151818401526020810190506106bf565b50505050905090810190601f1680156107075780820380516001836020036101000a031916815260200191505b50858103845288818151815260200191508051906020019080838360005b83811015610740578082015181840152602081019050610725565b50505050905090810190601f16801561076d5780820380516001836020036101000a031916815260200191505b50858103835287818151815260200191508051906020019080838360005b838110156107a657808201518184015260208101905061078b565b50505050905090810190601f1680156107d35780820380516001836020036101000a031916815260200191505b50858103825286818151815260200191508051906020019080838360005b8381101561080c5780820151818401526020810190506107f1565b50505050905090810190601f1680156108395780820380516001836020036101000a031916815260200191505b50995050505050505050505060405180910390f35b61087a6004803603602081101561086457600080fd5b810190808035906020019092919050505061139f565b604051808673ffffffffffffffffffffffffffffffffffffffff1673ffffffffffffffffffffffffffffffffffffffff16815260200180602001806020018060200180602001858103855289818151815260200191508051906020019080838360005b838110156108f85780820151818401526020810190506108dd565b50505050905090810190601f1680156109255780820380516001836020036101000a031916815260200191505b50858103845288818151815260200191508051906020019080838360005b8381101561095e578082015181840152602081019050610943565b50505050905090810190601f16801561098b5780820380516001836020036101000a031916815260200191505b50858103835287818151815260200191508051906020019080838360005b838110156109c45780820151818401526020810190506109a9565b50505050905090810190601f1680156109f15780820380516001836020036101000a031916815260200191505b50858103825286818151815260200191508051906020019080838360005b83811015610a2a578082015181840152602081019050610a0f565b50505050905090810190601f168015610a575780820380516001836020036101000a031916815260200191505b50995050505050505050505060405180910390f35b600080610a7c3387878787611655565b9050600073ffffffffffffffffffffffffffffffffffffffff1660008083815260200190815260200160002060000160009054906101000a900473ffffffffffffffffffffffffffffffffffffffff1673ffffffffffffffffffffffffffffffffffffffff1614610b55576040517f08c379a00000000000000000000000000000000000000000000000000000000081526004018080602001828103825260148152602001807f5061727420494420616c7265616479207573656400000000000000000000000081525060200191505060405180910390fd5b610b5d61191c565b6040518060a001604052803373ffffffffffffffffffffffffffffffffffffffff1681526020018881526020018781526020018681526020018581525090508060008084815260200190815260200160002060008201518160000160006101000a81548173ffffffffffffffffffffffffffffffffffffffff021916908373ffffffffffffffffffffffffffffffffffffffff1602179055506020820151816001019080519060200190610c12929190611961565b506040820151816002019080519060200190610c2f929190611961565b506060820151816003019080519060200190610c4c929190611961565b506080820151816004019080519060200190610c69929190611961565b509050508192505050949350505050565b610c826119e1565b600073ffffffffffffffffffffffffffffffffffffffff166001600084815260200190815260200160002060000160009054906101000a900473ffffffffffffffffffffffffffffffffffffffff1673ffffffffffffffffffffffffffffffffffffffff161415610d5b576040517f08c379a00000000000000000000000000000000000000000000000000000000081526004018080602001828103825260128152602001807f50726f6475637420696e6578697374656e74000000000000000000000000000081525060200191505060405180910390fd5b60016000838152602001908152602001600020600501600680602002604051908101604052809291908260068015610da8576020028201915b815481526020019060010190808311610d94575b50505050509050919050565b600080600090505b6006811015610eba57600073ffffffffffffffffffffffffffffffffffffffff16600080858460068110610dec57fe5b6020020151815260200190815260200160002060000160009054906101000a900473ffffffffffffffffffffffffffffffffffffffff1673ffffffffffffffffffffffffffffffffffffffff161415610ead576040517f08c379a000000000000000000000000000000000000000000000000000000000815260040180806020018281038252601f8152602001807f496e6578697374656e7420706172742075736564206f6e2070726f647563740081525060200191505060405180910390fd5b8080600101915050610dbc565b6000610ec93389898989611655565b9050600073ffffffffffffffffffffffffffffffffffffffff166001600083815260200190815260200160002060000160009054906101000a900473ffffffffffffffffffffffffffffffffffffffff1673ffffffffffffffffffffffffffffffffffffffff1614610fa3576040517f08c379a00000000000000000000000000000000000000000000000000000000081526004018080602001828103825260178152602001807f50726f6475637420494420616c7265616479207573656400000000000000000081525060200191505060405180910390fd5b610fab611a03565b6040518060c001604052803373ffffffffffffffffffffffffffffffffffffffff1681526020018a8152602001898152602001888152602001878152602001868152509050806001600084815260200190815260200160002060008201518160000160006101000a81548173ffffffffffffffffffffffffffffffffffffffff021916908373ffffffffffffffffffffffffffffffffffffffff1602179055506020820151816001019080519060200190611067929190611961565b506040820151816002019080519060200190611084929190611961565b5060608201518160030190805190602001906110a1929190611961565b5060808201518160040190805190602001906110be929190611961565b5060a0820151816005019060066110d6929190611a55565b5090505081935050505095945050505050565b60006020528060005260406000206000915090508060000160009054906101000a900473ffffffffffffffffffffffffffffffffffffffff1690806001018054600181600116156101000203166002900480601f0160208091040260200160405190810160405280929190818152602001828054600181600116156101000203166002900480156111bb5780601f10611190576101008083540402835291602001916111bb565b820191906000526020600020905b81548152906001019060200180831161119e57829003601f168201915b505050505090806002018054600181600116156101000203166002900480601f0160208091040260200160405190810160405280929190818152602001828054600181600116156101000203166002900480156112595780601f1061122e57610100808354040283529160200191611259565b820191906000526020600020905b81548152906001019060200180831161123c57829003601f168201915b505050505090806003018054600181600116156101000203166002900480601f0160208091040260200160405190810160405280929190818152602001828054600181600116156101000203166002900480156112f75780601f106112cc576101008083540402835291602001916112f7565b820191906000526020600020905b8154815290600101906020018083116112da57829003601f168201915b505050505090806004018054600181600116156101000203166002900480601f0160208091040260200160405190810160405280929190818152602001828054600181600116156101000203166002900480156113955780601f1061136a57610100808354040283529160200191611395565b820191906000526020600020905b81548152906001019060200180831161137857829003601f168201915b5050505050905085565b60016020528060005260406000206000915090508060000160009054906101000a900473ffffffffffffffffffffffffffffffffffffffff1690806001018054600181600116156101000203166002900480601f0160208091040260200160405190810160405280929190818152602001828054600181600116156101000203166002900480156114715780601f1061144657610100808354040283529160200191611471565b820191906000526020600020905b81548152906001019060200180831161145457829003601f168201915b505050505090806002018054600181600116156101000203166002900480601f01602080910402602001604051908101604052809291908181526020018280546001816001161561010002031660029004801561150f5780601f106114e45761010080835404028352916020019161150f565b820191906000526020600020905b8154815290600101906020018083116114f257829003601f168201915b505050505090806003018054600181600116156101000203166002900480601f0160208091040260200160405190810160405280929190818152602001828054600181600116156101000203166002900480156115ad5780601f10611582576101008083540402835291602001916115ad565b820191906000526020600020905b81548152906001019060200180831161159057829003601f168201915b505050505090806004018054600181600116156101000203166002900480601f01602080910402602001604051908101604052809291908181526020018280546001816001161561010002031660029004801561164b5780601f106116205761010080835404028352916020019161164b565b820191906000526020600020905b81548152906001019060200180831161162e57829003601f168201915b5050505050905085565b6000808660601b9050606086905060608690506060869050606086905060608251835185518751601460ff16010101016040519080825280601f01601f1916602001820160405280156116b75781602001600182028038833980820191505090505b5090506060819050600080905060008090505b601460ff16811015611734578881601481106116e257fe5b1a60f81b8383806001019450815181106116f857fe5b60200101907effffffffffffffffffffffffffffffffffffffffffffffffffffffffffffff1916908160001a90535080806001019150506116ca565b600090505b87518110156117a75787818151811061174e57fe5b602001015160f81c60f81b83838060010194508151811061176b57fe5b60200101907effffffffffffffffffffffffffffffffffffffffffffffffffffffffffffff1916908160001a9053508080600101915050611739565b600090505b865181101561181a578681815181106117c157fe5b602001015160f81c60f81b8383806001019450815181106117de57fe5b60200101907effffffffffffffffffffffffffffffffffffffffffffffffffffffffffffff1916908160001a90535080806001019150506117ac565b600090505b855181101561188d5785818151811061183457fe5b602001015160f81c60f81b83838060010194508151811061185157fe5b60200101907effffffffffffffffffffffffffffffffffffffffffffffffffffffffffffff1916908160001a905350808060010191505061181f565b600090505b8451811015611900578481815181106118a757fe5b602001015160f81c60f81b8383806001019450815181106118c457fe5b60200101907effffffffffffffffffffffffffffffffffffffffffffffffffffffffffffff1916908160001a9053508080600101915050611892565b8280519060200120995050505050505050505095945050505050565b6040518060a00160405280600073ffffffffffffffffffffffffffffffffffffffff168152602001606081526020016060815260200160608152602001606081525090565b828054600181600116156101000203166002900490600052602060002090601f016020900481019282601f106119a257805160ff19168380011785556119d0565b828001600101855582156119d0579182015b828111156119cf5782518255916020019190600101906119b4565b5b5090506119dd9190611a95565b5090565b6040518060c00160405280600690602082028038833980820191505090505090565b6040518060c00160405280600073ffffffffffffffffffffffffffffffffffffffff16815260200160608152602001606081526020016060815260200160608152602001611a4f611aba565b81525090565b8260068101928215611a84579160200282015b82811115611a83578251825591602001919060010190611a68565b5b509050611a919190611adc565b5090565b611ab791905b80821115611ab3576000816000905550600101611a9b565b5090565b90565b6040518060c00160405280600690602082028038833980820191505090505090565b611afe91905b80821115611afa576000816000905550600101611ae2565b5090565b9056fea265627a7a723158207f830d4347b5f1292ea2efe684f041a44ef73377772334520c788b7419e0edac64736f6c63430005100032",
  "source": "// SPDX-License-Identifier: MIT\r\npragma solidity >=0.4.22 <0.8.0;\r\n\r\ncontract Materials {\r\n    struct Part{\r\n        address material;\r\n        string serial_number;\r\n        string part_type;\r\n        string quantity;\r\n        string creation_date;\r\n    }\r\n\r\n    struct Command{\r\n        address material;\r\n        string serial_number;\r\n        string command_type;\r\n        string quantity;\r\n        string creation_date;\r\n        bytes32[6] parts;\r\n    }\r\n\r\n    mapping(bytes32 => Part) public parts;\r\n    mapping(bytes32 => Command) public commands;\r\n\r\n    constructor() public {\r\n    }\r\n\r\n    function concatenateInfoAndHash(address a1, string memory s1, string memory  s2, string memory s3, string memory s4) private returns (bytes32){\r\n        //First, get all values as bytes\r\n        bytes20 b_a1 = bytes20(a1);\r\n        bytes memory b_s1 = bytes(s1);\r\n        bytes memory b_s2 = bytes(s2);\r\n        bytes memory b_s3 = bytes(s3);\r\n        bytes memory b_s4 = bytes(s4);\r\n\r\n        //Then calculate and reserve a space for the full string\r\n        string memory s_full = new string(b_a1.length + b_s1.length + b_s2.length + b_s3.length + b_s3.length);\r\n        bytes memory b_full = bytes(s_full);\r\n        uint j = 0;\r\n        uint i;\r\n        for(i = 0; i < b_a1.length; i++){\r\n            b_full[j++] = b_a1[i];\r\n        }\r\n        for(i = 0; i < b_s1.length; i++){\r\n            b_full[j++] = b_s1[i];\r\n        }\r\n        for(i = 0; i < b_s2.length; i++){\r\n            b_full[j++] = b_s2[i];\r\n        }\r\n        for(i = 0; i < b_s3.length; i++){\r\n            b_full[j++] = b_s3[i];\r\n        }\r\n        for(i = 0; i < b_s4.length; i++){\r\n            b_full[j++] = b_s4[i];\r\n        }\r\n\r\n        //Hash the result and return\r\n        return keccak256(b_full);\r\n    }\r\n\r\n    function checkPart(string memory serial_number, string memory part_type, string memory quantity, string memory creation_date) public returns (bytes32){\r\n        //Create hash for data and check if it exists. If it doesn't, create the part and return the ID to the user\r\n        bytes32 part_hash = concatenateInfoAndHash(msg.sender, serial_number, part_type, quantity, creation_date);\r\n        \r\n        require(parts[part_hash].material == address(0), \"Part ID already used\");\r\n\r\n        Part memory new_part = Part(msg.sender, serial_number, part_type, quantity, creation_date);\r\n        parts[part_hash] = new_part;\r\n        return part_hash;\r\n    }\r\n\r\n    function checkCommand( string memory serial_number, string memory command_type, string memory quantity, string memory creation_date, bytes32[6] memory part_array) public returns (bytes32){\r\n        //Check if all the parts exist, hash values and add to product mapping.\r\n        uint i;\r\n        for(i = 0;i < part_array.length; i++){\r\n            require(parts[part_array[i]].material != address(0), \"Inexistent part used on product\");\r\n        }\r\n\r\n        //Create hash for data and check if exists. If it doesn't, create the part and return the ID to the user\r\n        bytes32 command_hash = concatenateInfoAndHash(msg.sender, serial_number, command_type, quantity, creation_date);\r\n        \r\n        require(commands[command_hash].material == address(0), \"Product ID already used\");\r\n\r\n        Command memory new_product = Command(msg.sender, serial_number, command_type, quantity, creation_date, part_array);\r\n        commands[command_hash] = new_product;\r\n        return command_hash;\r\n    }\r\n\r\n    function getParts(bytes32 product_hash) public returns (bytes32[6] memory){\r\n        //The automatic getter does not return arrays, so lets create a function for that\r\n        require(commands[product_hash].material != address(0), \"Product inexistent\");\r\n        return commands[product_hash].parts;\r\n    }\r\n}",
  "sourcePath": "C:/Users/tardi/Rocket_Elevators_Smart_Contracts/contracts/Materials.sol",
  "compiler": {
    "name": "solc",
    "version": "0.5.16+commit.9c3226ce.Emscripten.clang"
  },
  "schemaVersion": "3.3.2",
  "updatedAt": "2020-12-08T02:26:18.194Z",
  "networkType": "ethereum",
  "devdoc": {
    "methods": {}
  },
  "userdoc": {
    "methods": {}
  }
}