{
  "contractName": "MaterialProvider",
  "abi": [
    {
      "constant": true,
      "inputs": [],
      "name": "materialListCount",
      "outputs": [
        {
          "internalType": "uint256",
          "name": "",
          "type": "uint256"
        }
      ],
      "payable": false,
      "stateMutability": "view",
      "type": "function"
    },
    {
      "constant": false,
      "inputs": [
        {
          "internalType": "uint64",
          "name": "controllers",
          "type": "uint64"
        },
        {
          "internalType": "uint64",
          "name": "shafts",
          "type": "uint64"
        },
        {
          "internalType": "uint64",
          "name": "doors",
          "type": "uint64"
        },
        {
          "internalType": "uint64",
          "name": "buttons",
          "type": "uint64"
        },
        {
          "internalType": "uint64",
          "name": "displays",
          "type": "uint64"
        }
      ],
      "name": "createMaterials",
      "outputs": [
        {
          "internalType": "uint256",
          "name": "",
          "type": "uint256"
        }
      ],
      "payable": false,
      "stateMutability": "nonpayable",
      "type": "function"
    }
  ],
  "bytecode": "0x6080604052600060015534801561001557600080fd5b506104da806100256000396000f3fe608060405234801561001057600080fd5b50600436106100365760003560e01c80634d890a651461003b578063c312fa0a1461006b575b600080fd5b610055600480360361005091908101906103c1565b610089565b6040516100629190610447565b60405180910390f35b61007361030f565b6040516100809190610447565b60405180910390f35b600080600486029050600060028602600688020190506000600287029050600060048902905060008a878901019050600060028a02905060004290506100cd610315565b6040518061010001604052803373ffffffffffffffffffffffffffffffffffffffff1681526020018967ffffffffffffffff1681526020018867ffffffffffffffff1681526020018767ffffffffffffffff1681526020018667ffffffffffffffff1681526020018567ffffffffffffffff1681526020018467ffffffffffffffff1681526020018381525090508060006001548154811061016b57fe5b906000526020600020906004020160008201518160000160006101000a81548173ffffffffffffffffffffffffffffffffffffffff021916908373ffffffffffffffffffffffffffffffffffffffff16021790555060208201518160000160146101000a81548167ffffffffffffffff021916908367ffffffffffffffff16021790555060408201518160010160006101000a81548167ffffffffffffffff021916908367ffffffffffffffff16021790555060608201518160010160086101000a81548167ffffffffffffffff021916908367ffffffffffffffff16021790555060808201518160010160106101000a81548167ffffffffffffffff021916908367ffffffffffffffff16021790555060a08201518160010160186101000a81548167ffffffffffffffff021916908367ffffffffffffffff16021790555060c08201518160020160006101000a81548167ffffffffffffffff021916908367ffffffffffffffff16021790555060e082015181600301559050506001600081548092919060010191905055506001549850505050505050505095945050505050565b60015481565b604051806101000160405280600073ffffffffffffffffffffffffffffffffffffffff168152602001600067ffffffffffffffff168152602001600067ffffffffffffffff168152602001600067ffffffffffffffff168152602001600067ffffffffffffffff168152602001600067ffffffffffffffff168152602001600067ffffffffffffffff168152602001600081525090565b6000813590506103bb81610480565b92915050565b600080600080600060a086880312156103d957600080fd5b60006103e7888289016103ac565b95505060206103f8888289016103ac565b9450506040610409888289016103ac565b935050606061041a888289016103ac565b925050608061042b888289016103ac565b9150509295509295909350565b61044181610462565b82525050565b600060208201905061045c6000830184610438565b92915050565b6000819050919050565b600067ffffffffffffffff82169050919050565b6104898161046c565b811461049457600080fd5b5056fea365627a7a723158206cbc9fd5639cd7fe3fa5b783ae0fa0be15793aebf01179cd8c3512fba13c06996c6578706572696d656e74616cf564736f6c63430005100040",
  "source": "pragma solidity >=0.5.0 <0.8.0;\r\npragma experimental ABIEncoderV2;\r\nimport \"./ProjectOffice.sol\";\r\n// SPDX-License-Identifier: MIT\r\n\r\n\r\n\r\ncontract MaterialProvider {\r\n\r\n    struct Materials{\r\n        address materialId;\r\n        uint64 aluminiumBars;\r\n        uint64 stainlessSteelSheets;\r\n        uint64 bumperRubberBands;\r\n        uint64 interiorLightBulbs;\r\n        uint64 displaylEDs;\r\n        uint64 springs;\r\n        uint256 creation_date;\r\n    }\r\n\r\n    Materials[] materials;\r\n    uint public materialListCount = 0 ;\r\n\r\n     function createMaterials( uint64 controllers, uint64 shafts, uint64 doors, uint64 buttons, uint64 displays ) public returns (uint){\r\n\r\n        \r\n         uint64 aluminiumBars = shafts*4;\r\n         uint64 stainlessSteel = shafts*6 + doors*2;\r\n         uint64 rubber = doors*2;\r\n         uint64 lightBulbs = shafts*4;\r\n         uint64 lEDs = buttons + displays + controllers;\r\n         uint64 springs = doors*2;\r\n        uint256 creation_date = block.timestamp;\r\n        \r\n         Materials memory new_material = Materials(msg.sender, aluminiumBars, stainlessSteel, rubber, lightBulbs, lEDs, springs, creation_date);\r\n\r\n        materials[materialListCount] = new_material;\r\n        materialListCount++;\r\n\r\n        return  materialListCount;\r\n         }\r\n     \r\n\r\n  //  function getMaterialList() public view returns (Materials[] memory ){\r\n      //  return materials;\r\n    //}\r\n}",
  "sourcePath": "C:/Users/tardi/Rocket_Elevators_Smart_Contracts/contracts/Materials.sol",
  "compiler": {
    "name": "solc",
    "version": "0.5.16+commit.9c3226ce.Emscripten.clang"
  },
  "schemaVersion": "3.3.2",
  "updatedAt": "2020-12-10T01:13:20.842Z",
  "devdoc": {
    "methods": {}
  },
  "userdoc": {
    "methods": {}
  }
}