{
  "contractName": "MaterialProvider",
  "abi": [
    {
      "inputs": [
        {
          "internalType": "address",
          "name": "homies",
          "type": "address"
        }
      ],
      "payable": false,
      "stateMutability": "nonpayable",
      "type": "constructor"
    },
    {
      "constant": true,
      "inputs": [],
      "name": "materialListCount",
      "outputs": [
        {
          "internalType": "uint256",
          "name": "",
          "type": "uint256"
        }
      ],
      "payable": false,
      "stateMutability": "view",
      "type": "function"
    },
    {
      "constant": true,
      "inputs": [
        {
          "internalType": "uint256",
          "name": "index",
          "type": "uint256"
        }
      ],
      "name": "getMaterials1",
      "outputs": [
        {
          "internalType": "bytes32",
          "name": "",
          "type": "bytes32"
        },
        {
          "internalType": "uint256",
          "name": "",
          "type": "uint256"
        },
        {
          "internalType": "uint256",
          "name": "",
          "type": "uint256"
        },
        {
          "internalType": "uint256",
          "name": "",
          "type": "uint256"
        }
      ],
      "payable": false,
      "stateMutability": "view",
      "type": "function"
    },
    {
      "constant": true,
      "inputs": [
        {
          "internalType": "uint256",
          "name": "index",
          "type": "uint256"
        }
      ],
      "name": "getMaterials2",
      "outputs": [
        {
          "internalType": "uint256",
          "name": "",
          "type": "uint256"
        },
        {
          "internalType": "uint256",
          "name": "",
          "type": "uint256"
        },
        {
          "internalType": "uint256",
          "name": "",
          "type": "uint256"
        },
        {
          "internalType": "uint256",
          "name": "",
          "type": "uint256"
        }
      ],
      "payable": false,
      "stateMutability": "view",
      "type": "function"
    },
    {
      "constant": true,
      "inputs": [
        {
          "internalType": "address",
          "name": "index",
          "type": "address"
        },
        {
          "internalType": "uint64",
          "name": "controllers",
          "type": "uint64"
        },
        {
          "internalType": "uint64",
          "name": "shafts",
          "type": "uint64"
        },
        {
          "internalType": "uint64",
          "name": "doors",
          "type": "uint64"
        },
        {
          "internalType": "uint64",
          "name": "buttons",
          "type": "uint64"
        },
        {
          "internalType": "uint64",
          "name": "displays",
          "type": "uint64"
        }
      ],
      "name": "getBool",
      "outputs": [
        {
          "internalType": "bool",
          "name": "",
          "type": "bool"
        }
      ],
      "payable": false,
      "stateMutability": "view",
      "type": "function"
    },
    {
      "constant": true,
      "inputs": [
        {
          "internalType": "address",
          "name": "index",
          "type": "address"
        },
        {
          "internalType": "uint64",
          "name": "controllers",
          "type": "uint64"
        },
        {
          "internalType": "uint64",
          "name": "shafts",
          "type": "uint64"
        },
        {
          "internalType": "uint64",
          "name": "doors",
          "type": "uint64"
        },
        {
          "internalType": "uint64",
          "name": "buttons",
          "type": "uint64"
        },
        {
          "internalType": "uint64",
          "name": "displays",
          "type": "uint64"
        }
      ],
      "name": "getUniqueHash",
      "outputs": [
        {
          "internalType": "bytes32",
          "name": "",
          "type": "bytes32"
        }
      ],
      "payable": false,
      "stateMutability": "pure",
      "type": "function"
    },
    {
      "constant": true,
      "inputs": [],
      "name": "getAddress",
      "outputs": [
        {
          "internalType": "address",
          "name": "",
          "type": "address"
        }
      ],
      "payable": false,
      "stateMutability": "view",
      "type": "function"
    },
    {
      "constant": false,
      "inputs": [
        {
          "internalType": "address",
          "name": "index",
          "type": "address"
        },
        {
          "internalType": "uint64",
          "name": "controllers",
          "type": "uint64"
        },
        {
          "internalType": "uint64",
          "name": "shafts",
          "type": "uint64"
        },
        {
          "internalType": "uint64",
          "name": "doors",
          "type": "uint64"
        },
        {
          "internalType": "uint64",
          "name": "buttons",
          "type": "uint64"
        },
        {
          "internalType": "uint64",
          "name": "displays",
          "type": "uint64"
        }
      ],
      "name": "createMaterials",
      "outputs": [
        {
          "internalType": "uint256",
          "name": "",
          "type": "uint256"
        }
      ],
      "payable": false,
      "stateMutability": "nonpayable",
      "type": "function"
    }
  ],
  "bytecode": "0x6080604052600060035534801561001557600080fd5b50604051610a16380380610a1683398181016040526100379190810190610092565b806000806101000a81548173ffffffffffffffffffffffffffffffffffffffff021916908373ffffffffffffffffffffffffffffffffffffffff16021790555050610104565b60008151905061008c816100ed565b92915050565b6000602082840312156100a457600080fd5b60006100b28482850161007d565b91505092915050565b60006100c6826100cd565b9050919050565b600073ffffffffffffffffffffffffffffffffffffffff82169050919050565b6100f6816100bb565b811461010157600080fd5b50565b610903806101136000396000f3fe608060405234801561001057600080fd5b506004361061007d5760003560e01c8063800559fb1161005b578063800559fb14610106578063c312fa0a14610136578063caf5d4bf14610154578063ccefcf37146101845761007d565b80631fdabba11461008257806338cc4831146100b557806374a6fe27146100d3575b600080fd5b61009c6004803603610097919081019061064a565b6101b4565b6040516100ac9493929190610770565b60405180910390f35b6100bd610225565b6040516100ca91906106be565b60405180910390f35b6100ed60048036036100e8919081019061064a565b61022d565b6040516100fd94939291906107d0565b60405180910390f35b610120600480360361011b91908101906105c1565b61029e565b60405161012d9190610755565b60405180910390f35b61013e6102dd565b60405161014b91906107b5565b60405180910390f35b61016e600480360361016991908101906105c1565b6102e3565b60405161017b91906107b5565b60405180910390f35b61019e600480360361019991908101906105c1565b6104dc565b6040516101ab919061073a565b60405180910390f35b600080600080600160008681526020019081526020016000206001015460016000878152602001908152602001600020600201546001600088815260200190815260200160002060030154600160008981526020019081526020016000206004015493509350935093509193509193565b600033905090565b600080600080600160008681526020019081526020016000206005015460016000878152602001908152602001600020600601546001600088815260200190815260200160002060070154600160008981526020019081526020016000206008015493509350935093509193509193565b60008686868686866040516020016102bb969594939291906106d9565b6040516020818303038152906040528051906020012090509695505050505050565b60035481565b60006102ed61051d565b60006102fd89898989898961029e565b905033826000019073ffffffffffffffffffffffffffffffffffffffff16908173ffffffffffffffffffffffffffffffffffffffff1681525050808260200181815250506004870267ffffffffffffffff1682604001818152505060028602600688020167ffffffffffffffff168260600181815250506002860267ffffffffffffffff168260800181815250506004870267ffffffffffffffff168260a0018181525050878486010167ffffffffffffffff168260c00181815250506002860267ffffffffffffffff168260e001818152505042826101000181815250506003600081548092919060010191905055508160016000600354815260200190815260200160002060008201518160000160006101000a81548173ffffffffffffffffffffffffffffffffffffffff021916908373ffffffffffffffffffffffffffffffffffffffff1602179055506020820151816001015560408201518160020155606082015181600301556080820151816004015560a0820151816005015560c0820151816006015560e08201518160070155610100820151816008015590505060016002600083815260200190815260200160002060006101000a81548160ff021916908315150217905550600354925050509695505050505050565b6000806104ed88888888888861029e565b90506002600082815260200190815260200160002060009054906101000a900460ff169150509695505050505050565b604051806101200160405280600073ffffffffffffffffffffffffffffffffffffffff16815260200160008019168152602001600081526020016000815260200160008152602001600081526020016000815260200160008152602001600081525090565b6000813590506105918161087b565b92915050565b6000813590506105a681610892565b92915050565b6000813590506105bb816108a9565b92915050565b60008060008060008060c087890312156105da57600080fd5b60006105e889828a01610582565b96505060206105f989828a016105ac565b955050604061060a89828a016105ac565b945050606061061b89828a016105ac565b935050608061062c89828a016105ac565b92505060a061063d89828a016105ac565b9150509295509295509295565b60006020828403121561065c57600080fd5b600061066a84828501610597565b91505092915050565b61067c81610815565b82525050565b61068b81610827565b82525050565b61069a81610833565b82525050565b6106a98161085d565b82525050565b6106b881610867565b82525050565b60006020820190506106d36000830184610673565b92915050565b600060c0820190506106ee6000830189610673565b6106fb60208301886106af565b61070860408301876106af565b61071560608301866106af565b61072260808301856106af565b61072f60a08301846106af565b979650505050505050565b600060208201905061074f6000830184610682565b92915050565b600060208201905061076a6000830184610691565b92915050565b60006080820190506107856000830187610691565b61079260208301866106a0565b61079f60408301856106a0565b6107ac60608301846106a0565b95945050505050565b60006020820190506107ca60008301846106a0565b92915050565b60006080820190506107e560008301876106a0565b6107f260208301866106a0565b6107ff60408301856106a0565b61080c60608301846106a0565b95945050505050565b60006108208261083d565b9050919050565b60008115159050919050565b6000819050919050565b600073ffffffffffffffffffffffffffffffffffffffff82169050919050565b6000819050919050565b600067ffffffffffffffff82169050919050565b61088481610815565b811461088f57600080fd5b50565b61089b8161085d565b81146108a657600080fd5b50565b6108b281610867565b81146108bd57600080fd5b5056fea365627a7a72315820378490542dbc5a384bb229b9a644b0870df290556d67b944c7e1f1ccca7131f46c6578706572696d656e74616cf564736f6c63430005100040",
  "source": "pragma solidity >=0.5.0 <0.8.0;\r\npragma experimental ABIEncoderV2;\r\n//import \"./ProjectOffice.sol\";\r\n// SPDX-License-Identifier: MIT\r\n\r\n\r\n\r\ncontract MaterialProvider {\r\n\r\n    address project;\r\n\r\n    struct Materials{\r\n        address materialId;\r\n        bytes32 commandId;\r\n        uint aluminiumBars;\r\n        uint stainlessSteelSheets;\r\n        uint bumperRubberBands;\r\n        uint interiorLightBulbs;\r\n        uint displaylEDs;\r\n        uint springs;\r\n        uint256 creation_date;\r\n    }\r\n\r\n    mapping(uint => Materials) materials;\r\n    mapping (bytes32 => bool) addresses;\r\n\r\n    constructor(address homies) public {\r\n        project = homies;\r\n    }\r\n\r\n    uint public materialListCount = 0;\r\n\r\n        function getMaterials1(uint index) public view returns (bytes32, uint, uint, uint ){\r\n            return (materials[index].commandId, materials[index].aluminiumBars, materials[index].stainlessSteelSheets,materials[index].bumperRubberBands);\r\n        }\r\n\r\n        function getMaterials2(uint index) public view returns (uint, uint, uint, uint256){\r\n            return (materials[index].interiorLightBulbs, materials[index].displaylEDs, materials[index].springs, materials[index].creation_date);\r\n        }\r\n\r\n        function getBool(address index, uint64 controllers, uint64 shafts, uint64 doors, uint64 buttons, uint64 displays) public view returns (bool){\r\n            bytes32 commandId = getUniqueHash(index, controllers, shafts, doors, buttons, displays);\r\n            return addresses[commandId];\r\n        }\r\n\r\n        function getUniqueHash(address index, uint64 controllers, uint64 shafts, uint64 doors, uint64 buttons, uint64 displays) public pure returns (bytes32){\r\n            return keccak256(abi.encode(index,controllers, shafts, doors, buttons, displays));\r\n        }\r\n\r\n        function getAddress() public view returns (address){\r\n            return msg.sender;\r\n        }\r\n\r\n\r\n     function createMaterials( address index, uint64 controllers, uint64 shafts, uint64 doors, uint64 buttons, uint64 displays ) public returns (uint){\r\n\r\n                \r\n        Materials memory new_material;\r\n\r\n        bytes32 commandId = getUniqueHash(index, controllers, shafts, doors, buttons, displays);\r\n\r\n        new_material.materialId = msg.sender;\r\n        new_material.commandId = commandId;\r\n        new_material.aluminiumBars = shafts*4;\r\n        new_material.stainlessSteelSheets = shafts*6 + doors*2;\r\n        new_material.bumperRubberBands = doors*2;\r\n        new_material.interiorLightBulbs = shafts*4;\r\n        new_material.displaylEDs = buttons + displays + controllers;\r\n        new_material.springs = doors*2;\r\n        new_material.creation_date = block.timestamp;\r\n            \r\n        materialListCount++;\r\n        materials[materialListCount] = new_material;\r\n        addresses[commandId] = true;\r\n\r\n        return  materialListCount;\r\n         }\r\n\r\n\r\n}",
  "sourcePath": "C:/Users/tardi/Rocket_Elevators_Smart_Contracts/contracts/MaterialProvider.sol",
  "compiler": {
    "name": "solc",
    "version": "0.5.16+commit.9c3226ce.Emscripten.clang"
  },
  "schemaVersion": "3.3.2",
  "updatedAt": "2020-12-10T19:41:18.443Z",
  "networkType": "ethereum",
  "devdoc": {
    "methods": {}
  },
  "userdoc": {
    "methods": {}
  }
}