{
  "contractName": "Materials",
  "abi": [
    {
      "constant": false,
      "inputs": [
        {
          "components": [
            {
              "internalType": "address",
              "name": "commandId",
              "type": "address"
            },
            {
              "internalType": "uint256",
              "name": "nbOfElevators",
              "type": "uint256"
            },
            {
              "internalType": "uint256",
              "name": "nbOfColumns",
              "type": "uint256"
            },
            {
              "internalType": "string",
              "name": "quality",
              "type": "string"
            },
            {
              "internalType": "string",
              "name": "creation_date",
              "type": "string"
            }
          ],
          "internalType": "struct Materials.Command",
          "name": "command",
          "type": "tuple"
        }
      ],
      "name": "createMaterialList",
      "outputs": [
        {
          "internalType": "address",
          "name": "",
          "type": "address"
        }
      ],
      "payable": false,
      "stateMutability": "nonpayable",
      "type": "function"
    },
    {
      "constant": true,
      "inputs": [],
      "name": "getMaterialList",
      "outputs": [
        {
          "components": [
            {
              "internalType": "address",
              "name": "materialId",
              "type": "address"
            },
            {
              "internalType": "uint256",
              "name": "aluminiumBars",
              "type": "uint256"
            },
            {
              "internalType": "uint256",
              "name": "stainlessSteelSheets",
              "type": "uint256"
            },
            {
              "internalType": "uint256",
              "name": "bumperRubberBands",
              "type": "uint256"
            },
            {
              "internalType": "uint256",
              "name": "interiorLightBulbs",
              "type": "uint256"
            },
            {
              "internalType": "uint256",
              "name": "displaylEDs",
              "type": "uint256"
            },
            {
              "internalType": "uint256",
              "name": "springs",
              "type": "uint256"
            },
            {
              "internalType": "uint256",
              "name": "creation_date",
              "type": "uint256"
            }
          ],
          "internalType": "struct Materials.Material[]",
          "name": "",
          "type": "tuple[]"
        }
      ],
      "payable": false,
      "stateMutability": "view",
      "type": "function"
    }
  ],
  "bytecode": "0x608060405234801561001057600080fd5b50610899806100206000396000f3fe608060405234801561001057600080fd5b50600436106100365760003560e01c80630348b8671461003b57806305fe9d161461006b575b600080fd5b61005560048036036100509190810190610516565b610089565b60405161006291906106dd565b60405180910390f35b610073610289565b60405161008091906106f8565b60405180910390f35b60008073ffffffffffffffffffffffffffffffffffffffff16826000015173ffffffffffffffffffffffffffffffffffffffff1614156100fe576040517f08c379a00000000000000000000000000000000000000000000000000000000081526004016100f59061071a565b60405180910390fd5b6000600a83602001510290506000600684604001510290506000600285602001510290506000600486602001510290506000600487604001510290506000600188602001510290506000429050610153610385565b6040518061010001604052803373ffffffffffffffffffffffffffffffffffffffff1681526020018981526020018881526020018781526020018681526020018581526020018481526020018381525090506000819080600181540180825580915050906001820390600052602060002090600802016000909192909190915060008201518160000160006101000a81548173ffffffffffffffffffffffffffffffffffffffff021916908373ffffffffffffffffffffffffffffffffffffffff1602179055506020820151816001015560408201518160020155606082015181600301556080820151816004015560a0820151816005015560c0820151816006015560e08201518160070155505050600160008154809291906001019190505550806000015198505050505050505050919050565b60606000805480602002602001604051908101604052809291908181526020016000905b8282101561037c5783829060005260206000209060080201604051806101000160405290816000820160009054906101000a900473ffffffffffffffffffffffffffffffffffffffff1673ffffffffffffffffffffffffffffffffffffffff1673ffffffffffffffffffffffffffffffffffffffff168152602001600182015481526020016002820154815260200160038201548152602001600482015481526020016005820154815260200160068201548152602001600782015481525050815260200190600101906102ad565b50505050905090565b604051806101000160405280600073ffffffffffffffffffffffffffffffffffffffff168152602001600081526020016000815260200160008152602001600081526020016000815260200160008152602001600081525090565b6000813590506103ef81610828565b92915050565b600082601f83011261040657600080fd5b813561041961041482610767565b61073a565b9150808252602083016020830185838301111561043557600080fd5b610440838284610819565b50505092915050565b600060a0828403121561045b57600080fd5b61046560a061073a565b90506000610475848285016103e0565b600083015250602061048984828501610501565b602083015250604061049d84828501610501565b604083015250606082013567ffffffffffffffff8111156104bd57600080fd5b6104c9848285016103f5565b606083015250608082013567ffffffffffffffff8111156104e957600080fd5b6104f5848285016103f5565b60808301525092915050565b6000813590506105108161083f565b92915050565b60006020828403121561052857600080fd5b600082013567ffffffffffffffff81111561054257600080fd5b61054e84828501610449565b91505092915050565b6000610563838361062c565b6101008301905092915050565b610579816107dd565b82525050565b610588816107dd565b82525050565b6000610599826107a3565b6105a381856107bb565b93506105ae83610793565b8060005b838110156105df5781516105c68882610557565b97506105d1836107ae565b9250506001810190506105b2565b5085935050505092915050565b60006105f96017836107cc565b91507f436f6d6d616e6420646f65736e2774206578697374732e0000000000000000006000830152602082019050919050565b610100820160008201516106436000850182610570565b50602082015161065660208501826106ce565b50604082015161066960408501826106ce565b50606082015161067c60608501826106ce565b50608082015161068f60808501826106ce565b5060a08201516106a260a08501826106ce565b5060c08201516106b560c08501826106ce565b5060e08201516106c860e08501826106ce565b50505050565b6106d78161080f565b82525050565b60006020820190506106f2600083018461057f565b92915050565b60006020820190508181036000830152610712818461058e565b905092915050565b60006020820190508181036000830152610733816105ec565b9050919050565b6000604051905081810181811067ffffffffffffffff8211171561075d57600080fd5b8060405250919050565b600067ffffffffffffffff82111561077e57600080fd5b601f19601f8301169050602081019050919050565b6000819050602082019050919050565b600081519050919050565b6000602082019050919050565b600082825260208201905092915050565b600082825260208201905092915050565b60006107e8826107ef565b9050919050565b600073ffffffffffffffffffffffffffffffffffffffff82169050919050565b6000819050919050565b82818337600083830152505050565b610831816107dd565b811461083c57600080fd5b50565b6108488161080f565b811461085357600080fd5b5056fea365627a7a72315820ddf8234a46c0dfbd4da3ac96a36be4f15f7a697ec81b933eb233ef8a683ea0556c6578706572696d656e74616cf564736f6c63430005100040",
  "source": "// SPDX-License-Identifier: MIT\r\npragma solidity >=0.5.0 <0.8.0;\r\npragma experimental ABIEncoderV2;\r\n\r\ncontract Materials {\r\n    struct Command{\r\n        address commandId;\r\n        uint nbOfElevators;\r\n        uint nbOfColumns;\r\n        string quality;\r\n        string creation_date;\r\n    }\r\n\r\n    struct Material{\r\n        address materialId;\r\n        uint aluminiumBars;\r\n        uint stainlessSteelSheets;\r\n        uint bumperRubberBands;\r\n        uint interiorLightBulbs;\r\n        uint displaylEDs;\r\n        uint springs;\r\n        uint256 creation_date;\r\n    }\r\n\r\n    Material[] materials;\r\n    uint materialListCount;\r\n\r\n    function createMaterialList(Command memory command) public returns (address){\r\n\r\n        require(command.commandId != address(0), \"Command doesn't exists.\");\r\n\r\n        uint aluminiumBars = command.nbOfElevators*10;\r\n        uint stainlessSteel = command.nbOfColumns*6;\r\n        uint rubber = command.nbOfElevators*2;\r\n        uint lightBulbs = command.nbOfElevators*4;\r\n        uint lEDs = command.nbOfColumns*4;\r\n        uint springs = command.nbOfElevators*1;\r\n        uint256 creation_date = block.timestamp;\r\n        \r\n        Material memory new_material = Material(msg.sender, aluminiumBars, stainlessSteel, rubber, lightBulbs, lEDs, springs, creation_date);\r\n\r\n        materials.push(new_material);\r\n        materialListCount++;\r\n\r\n        return new_material.materialId;\r\n    }\r\n\r\n    function getMaterialList() public view returns (Material[] memory ){\r\n\r\n        return materials;\r\n    }\r\n}\r\n",
  "sourcePath": "E:/Git/Rocket_Elevators_Smart_Contracts/contracts/Materials.sol",
  "compiler": {
    "name": "solc",
    "version": "0.5.16+commit.9c3226ce.Emscripten.clang"
  },
  "schemaVersion": "3.3.2",
  "updatedAt": "2020-12-08T17:44:58.434Z",
  "networkType": "ethereum",
  "devdoc": {
    "methods": {}
  },
  "userdoc": {
    "methods": {}
  }
}