{
  "contractName": "MaterialProvider",
  "abi": [
    {
      "constant": true,
      "inputs": [],
      "name": "materialListCount",
      "outputs": [
        {
          "internalType": "uint256",
          "name": "",
          "type": "uint256"
        }
      ],
      "payable": false,
      "stateMutability": "view",
      "type": "function"
    },
    {
      "constant": true,
      "inputs": [
        {
          "internalType": "uint256",
          "name": "index",
          "type": "uint256"
        }
      ],
      "name": "getMaterials1",
      "outputs": [
        {
          "internalType": "address",
          "name": "",
          "type": "address"
        },
        {
          "internalType": "uint256",
          "name": "",
          "type": "uint256"
        },
        {
          "internalType": "uint256",
          "name": "",
          "type": "uint256"
        },
        {
          "internalType": "uint256",
          "name": "",
          "type": "uint256"
        }
      ],
      "payable": false,
      "stateMutability": "view",
      "type": "function"
    },
    {
      "constant": true,
      "inputs": [
        {
          "internalType": "uint256",
          "name": "index",
          "type": "uint256"
        }
      ],
      "name": "getMaterials2",
      "outputs": [
        {
          "internalType": "uint256",
          "name": "",
          "type": "uint256"
        },
        {
          "internalType": "uint256",
          "name": "",
          "type": "uint256"
        },
        {
          "internalType": "uint256",
          "name": "",
          "type": "uint256"
        },
        {
          "internalType": "uint256",
          "name": "",
          "type": "uint256"
        }
      ],
      "payable": false,
      "stateMutability": "view",
      "type": "function"
    },
    {
      "constant": false,
      "inputs": [
        {
          "internalType": "uint64",
          "name": "controllers",
          "type": "uint64"
        },
        {
          "internalType": "uint64",
          "name": "shafts",
          "type": "uint64"
        },
        {
          "internalType": "uint64",
          "name": "doors",
          "type": "uint64"
        },
        {
          "internalType": "uint64",
          "name": "buttons",
          "type": "uint64"
        },
        {
          "internalType": "uint64",
          "name": "displays",
          "type": "uint64"
        }
      ],
      "name": "createMaterials",
      "outputs": [
        {
          "components": [
            {
              "internalType": "address",
              "name": "materialId",
              "type": "address"
            },
            {
              "internalType": "uint256",
              "name": "aluminiumBars",
              "type": "uint256"
            },
            {
              "internalType": "uint256",
              "name": "stainlessSteelSheets",
              "type": "uint256"
            },
            {
              "internalType": "uint256",
              "name": "bumperRubberBands",
              "type": "uint256"
            },
            {
              "internalType": "uint256",
              "name": "interiorLightBulbs",
              "type": "uint256"
            },
            {
              "internalType": "uint256",
              "name": "displaylEDs",
              "type": "uint256"
            },
            {
              "internalType": "uint256",
              "name": "springs",
              "type": "uint256"
            },
            {
              "internalType": "uint256",
              "name": "creation_date",
              "type": "uint256"
            }
          ],
          "internalType": "struct MaterialProvider.Materials",
          "name": "",
          "type": "tuple"
        }
      ],
      "payable": false,
      "stateMutability": "nonpayable",
      "type": "function"
    }
  ],
  "bytecode": "0x6080604052600060015534801561001557600080fd5b5061072e806100256000396000f3fe608060405234801561001057600080fd5b506004361061004c5760003560e01c80631fdabba1146100515780634d890a651461008457806374a6fe27146100b4578063c312fa0a146100e7575b600080fd5b61006b6004803603610066919081019061042e565b610105565b60405161007b94939291906105ac565b60405180910390f35b61009e60048036036100999190810190610457565b610192565b6040516100ab91906105f1565b60405180910390f35b6100ce60048036036100c9919081019061042e565b610336565b6040516100de9493929190610628565b60405180910390f35b6100ef6103a3565b6040516100fc919061060d565b60405180910390f35b60008060008060008086815260200190815260200160002060000160009054906101000a900473ffffffffffffffffffffffffffffffffffffffff1660008087815260200190815260200160002060010154600080888152602001908152602001600020600201546000808981526020019081526020016000206003015493509350935093509193509193565b61019a6103a9565b6000600486029050600060028602600688020190506000600287029050600060048902905060008a878901019050600060028a02905060004290506101dd6103a9565b6040518061010001604052803373ffffffffffffffffffffffffffffffffffffffff1681526020018967ffffffffffffffff1681526020018867ffffffffffffffff1681526020018767ffffffffffffffff1681526020018667ffffffffffffffff1681526020018567ffffffffffffffff1681526020018467ffffffffffffffff16815260200183815250905060016000815480929190600101919050555080600080600154815260200190815260200160002060008201518160000160006101000a81548173ffffffffffffffffffffffffffffffffffffffff021916908373ffffffffffffffffffffffffffffffffffffffff1602179055506020820151816001015560408201518160020155606082015181600301556080820151816004015560a0820151816005015560c0820151816006015560e08201518160070155905050809850505050505050505095945050505050565b6000806000806000808681526020019081526020016000206004015460008087815260200190815260200160002060050154600080888152602001908152602001600020600601546000808981526020019081526020016000206007015493509350935093509193509193565b60015481565b604051806101000160405280600073ffffffffffffffffffffffffffffffffffffffff168152602001600081526020016000815260200160008152602001600081526020016000815260200160008152602001600081525090565b600081359050610413816106bd565b92915050565b600081359050610428816106d4565b92915050565b60006020828403121561044057600080fd5b600061044e84828501610404565b91505092915050565b600080600080600060a0868803121561046f57600080fd5b600061047d88828901610419565b955050602061048e88828901610419565b945050604061049f88828901610419565b93505060606104b088828901610419565b92505060806104c188828901610419565b9150509295509295909350565b6104d78161066d565b82525050565b6104e68161066d565b82525050565b6101008201600082015161050360008501826104ce565b506020820151610516602085018261058e565b506040820151610529604085018261058e565b50606082015161053c606085018261058e565b50608082015161054f608085018261058e565b5060a082015161056260a085018261058e565b5060c082015161057560c085018261058e565b5060e082015161058860e085018261058e565b50505050565b6105978161069f565b82525050565b6105a68161069f565b82525050565b60006080820190506105c160008301876104dd565b6105ce602083018661059d565b6105db604083018561059d565b6105e8606083018461059d565b95945050505050565b60006101008201905061060760008301846104ec565b92915050565b6000602082019050610622600083018461059d565b92915050565b600060808201905061063d600083018761059d565b61064a602083018661059d565b610657604083018561059d565b610664606083018461059d565b95945050505050565b60006106788261067f565b9050919050565b600073ffffffffffffffffffffffffffffffffffffffff82169050919050565b6000819050919050565b600067ffffffffffffffff82169050919050565b6106c68161069f565b81146106d157600080fd5b50565b6106dd816106a9565b81146106e857600080fd5b5056fea365627a7a7231582087179003c0a946cbdf318401b63264e8a1f6242f1fc57b0a251aaed78adbf4066c6578706572696d656e74616cf564736f6c63430005100040",
  "source": "pragma solidity >=0.5.0 <0.8.0;\r\npragma experimental ABIEncoderV2;\r\nimport \"./ProjectOffice.sol\";\r\n// SPDX-License-Identifier: MIT\r\n\r\n\r\n\r\ncontract MaterialProvider {\r\n\r\n    struct Materials{\r\n        address materialId;\r\n        uint aluminiumBars;\r\n        uint stainlessSteelSheets;\r\n        uint bumperRubberBands;\r\n        uint interiorLightBulbs;\r\n        uint displaylEDs;\r\n        uint springs;\r\n        uint256 creation_date;\r\n    }\r\n\r\n    mapping(uint => Materials) materials;\r\n    uint public materialListCount = 0 ;\r\n\r\n        function getMaterials1(uint index) public view returns (address, uint, uint, uint){\r\n            return (materials[index].materialId, materials[index].aluminiumBars, materials[index].stainlessSteelSheets,materials[index].bumperRubberBands);\r\n        }\r\n        function getMaterials2(uint index) public view returns (uint, uint, uint, uint256){\r\n            return (materials[index].interiorLightBulbs, materials[index].displaylEDs, materials[index].springs, materials[index].creation_date);\r\n        }\r\n\r\n     function createMaterials( uint64 controllers, uint64 shafts, uint64 doors, uint64 buttons, uint64 displays ) public returns (Materials memory){\r\n\r\n        \r\n         uint64 aluminiumBars = shafts*4;\r\n         uint64 stainlessSteel = shafts*6 + doors*2;\r\n         uint64 rubber = doors*2;\r\n         uint64 lightBulbs = shafts*4;\r\n         uint64 lEDs = buttons + displays + controllers;\r\n         uint64 springs = doors*2;\r\n         uint256 creation_date = block.timestamp;\r\n        \r\n         Materials memory new_material = Materials(msg.sender, aluminiumBars, stainlessSteel, rubber, lightBulbs, lEDs, springs, creation_date);\r\n        \r\n        materialListCount++;\r\n        materials[materialListCount] = new_material;\r\n\r\n        return  new_material;\r\n         }\r\n}",
  "sourcePath": "C:/Users/tardi/Rocket_Elevators_Smart_Contracts/contracts/Materials.sol",
  "compiler": {
    "name": "solc",
    "version": "0.5.16+commit.9c3226ce.Emscripten.clang"
  },
  "schemaVersion": "3.3.2",
  "updatedAt": "2020-12-10T03:20:18.830Z",
  "networkType": "ethereum",
  "devdoc": {
    "methods": {}
  },
  "userdoc": {
    "methods": {}
  }
}