{
  "contractName": "MaterialProvider",
  "abi": [
    {
      "inputs": [
        {
          "internalType": "address",
          "name": "homies",
          "type": "address"
        }
      ],
      "payable": false,
      "stateMutability": "nonpayable",
      "type": "constructor"
    },
    {
      "constant": true,
      "inputs": [
        {
          "internalType": "bytes32",
          "name": "",
          "type": "bytes32"
        }
      ],
      "name": "addresses",
      "outputs": [
        {
          "internalType": "bool",
          "name": "",
          "type": "bool"
        }
      ],
      "payable": false,
      "stateMutability": "view",
      "type": "function"
    },
    {
      "constant": true,
      "inputs": [],
      "name": "materialListCount",
      "outputs": [
        {
          "internalType": "uint256",
          "name": "",
          "type": "uint256"
        }
      ],
      "payable": false,
      "stateMutability": "view",
      "type": "function"
    },
    {
      "constant": true,
      "inputs": [
        {
          "internalType": "uint256",
          "name": "",
          "type": "uint256"
        }
      ],
      "name": "materials",
      "outputs": [
        {
          "internalType": "address",
          "name": "materialId",
          "type": "address"
        },
        {
          "internalType": "bytes32",
          "name": "commandId",
          "type": "bytes32"
        },
        {
          "internalType": "uint256",
          "name": "aluminiumBars",
          "type": "uint256"
        },
        {
          "internalType": "uint256",
          "name": "stainlessSteelSheets",
          "type": "uint256"
        },
        {
          "internalType": "uint256",
          "name": "bumperRubberBands",
          "type": "uint256"
        },
        {
          "internalType": "uint256",
          "name": "interiorLightBulbs",
          "type": "uint256"
        },
        {
          "internalType": "uint256",
          "name": "displaylEDs",
          "type": "uint256"
        },
        {
          "internalType": "uint256",
          "name": "springs",
          "type": "uint256"
        },
        {
          "internalType": "uint256",
          "name": "creation_date",
          "type": "uint256"
        }
      ],
      "payable": false,
      "stateMutability": "view",
      "type": "function"
    },
    {
      "constant": true,
      "inputs": [
        {
          "internalType": "uint256",
          "name": "index",
          "type": "uint256"
        }
      ],
      "name": "getMaterials1",
      "outputs": [
        {
          "internalType": "bytes32",
          "name": "",
          "type": "bytes32"
        },
        {
          "internalType": "uint256",
          "name": "",
          "type": "uint256"
        },
        {
          "internalType": "uint256",
          "name": "",
          "type": "uint256"
        },
        {
          "internalType": "uint256",
          "name": "",
          "type": "uint256"
        }
      ],
      "payable": false,
      "stateMutability": "view",
      "type": "function"
    },
    {
      "constant": true,
      "inputs": [
        {
          "internalType": "uint256",
          "name": "index",
          "type": "uint256"
        }
      ],
      "name": "getMaterials2",
      "outputs": [
        {
          "internalType": "uint256",
          "name": "",
          "type": "uint256"
        },
        {
          "internalType": "uint256",
          "name": "",
          "type": "uint256"
        },
        {
          "internalType": "uint256",
          "name": "",
          "type": "uint256"
        },
        {
          "internalType": "uint256",
          "name": "",
          "type": "uint256"
        }
      ],
      "payable": false,
      "stateMutability": "view",
      "type": "function"
    },
    {
      "constant": true,
      "inputs": [
        {
          "internalType": "address",
          "name": "index",
          "type": "address"
        },
        {
          "internalType": "uint64",
          "name": "controllers",
          "type": "uint64"
        },
        {
          "internalType": "uint64",
          "name": "shafts",
          "type": "uint64"
        },
        {
          "internalType": "uint64",
          "name": "doors",
          "type": "uint64"
        },
        {
          "internalType": "uint64",
          "name": "buttons",
          "type": "uint64"
        },
        {
          "internalType": "uint64",
          "name": "displays",
          "type": "uint64"
        }
      ],
      "name": "getBool",
      "outputs": [
        {
          "internalType": "bool",
          "name": "",
          "type": "bool"
        }
      ],
      "payable": false,
      "stateMutability": "view",
      "type": "function"
    },
    {
      "constant": true,
      "inputs": [],
      "name": "getAddress",
      "outputs": [
        {
          "internalType": "address",
          "name": "",
          "type": "address"
        }
      ],
      "payable": false,
      "stateMutability": "view",
      "type": "function"
    },
    {
      "constant": true,
      "inputs": [
        {
          "internalType": "address",
          "name": "index",
          "type": "address"
        },
        {
          "internalType": "uint64",
          "name": "controllers",
          "type": "uint64"
        },
        {
          "internalType": "uint64",
          "name": "shafts",
          "type": "uint64"
        },
        {
          "internalType": "uint64",
          "name": "doors",
          "type": "uint64"
        },
        {
          "internalType": "uint64",
          "name": "buttons",
          "type": "uint64"
        },
        {
          "internalType": "uint64",
          "name": "displays",
          "type": "uint64"
        }
      ],
      "name": "getUniqueHash",
      "outputs": [
        {
          "internalType": "bytes32",
          "name": "",
          "type": "bytes32"
        }
      ],
      "payable": false,
      "stateMutability": "pure",
      "type": "function"
    },
    {
      "constant": false,
      "inputs": [
        {
          "internalType": "address",
          "name": "index",
          "type": "address"
        },
        {
          "internalType": "uint64",
          "name": "controllers",
          "type": "uint64"
        },
        {
          "internalType": "uint64",
          "name": "shafts",
          "type": "uint64"
        },
        {
          "internalType": "uint64",
          "name": "doors",
          "type": "uint64"
        },
        {
          "internalType": "uint64",
          "name": "buttons",
          "type": "uint64"
        },
        {
          "internalType": "uint64",
          "name": "displays",
          "type": "uint64"
        }
      ],
      "name": "createMaterials",
      "outputs": [
        {
          "internalType": "uint256",
          "name": "",
          "type": "uint256"
        }
      ],
      "payable": false,
      "stateMutability": "nonpayable",
      "type": "function"
    }
  ],
  "bytecode": "0x6080604052600060035534801561001557600080fd5b50604051610dc1380380610dc183398181016040526100379190810190610092565b806000806101000a81548173ffffffffffffffffffffffffffffffffffffffff021916908373ffffffffffffffffffffffffffffffffffffffff16021790555050610104565b60008151905061008c816100ed565b92915050565b6000602082840312156100a457600080fd5b60006100b28482850161007d565b91505092915050565b60006100c6826100cd565b9050919050565b600073ffffffffffffffffffffffffffffffffffffffff82169050919050565b6100f6816100bb565b811461010157600080fd5b50565b610cae806101136000396000f3fe608060405234801561001057600080fd5b50600436106100935760003560e01c80637a8e8526116100665780637a8e85261461014c578063800559fb14610184578063c312fa0a146101b4578063caf5d4bf146101d2578063ccefcf371461020257610093565b80631fdabba11461009857806338cc4831146100cb578063699f200f146100e957806374a6fe2714610119575b600080fd5b6100b260048036036100ad91908101906108e0565b610232565b6040516100c29493929190610ad3565b60405180910390f35b6100d3610349565b6040516100e09190610994565b60405180910390f35b61010360048036036100fe91908101906108b7565b610351565b6040516101109190610a9d565b60405180910390f35b610133600480360361012e91908101906108e0565b610371565b6040516101439493929190610b53565b60405180910390f35b610166600480360361016191908101906108e0565b610488565b60405161017b999897969594939291906109af565b60405180910390f35b61019e6004803603610199919081019061082e565b6104f6565b6040516101ab9190610ab8565b60405180910390f35b6101bc610535565b6040516101c99190610b38565b60405180910390f35b6101ec60048036036101e7919081019061082e565b61053b565b6040516101f99190610b38565b60405180910390f35b61021c6004803603610217919081019061082e565b610734565b6040516102299190610a9d565b60405180910390f35b600080600080600073ffffffffffffffffffffffffffffffffffffffff166001600087815260200190815260200160002060000160009054906101000a900473ffffffffffffffffffffffffffffffffffffffff1673ffffffffffffffffffffffffffffffffffffffff1614156102de576040517f08c379a00000000000000000000000000000000000000000000000000000000081526004016102d590610b18565b60405180910390fd5b600160008681526020019081526020016000206001015460016000878152602001908152602001600020600201546001600088815260200190815260200160002060030154600160008981526020019081526020016000206004015493509350935093509193509193565b600033905090565b60026020528060005260406000206000915054906101000a900460ff1681565b600080600080600073ffffffffffffffffffffffffffffffffffffffff166001600087815260200190815260200160002060000160009054906101000a900473ffffffffffffffffffffffffffffffffffffffff1673ffffffffffffffffffffffffffffffffffffffff16141561041d576040517f08c379a000000000000000000000000000000000000000000000000000000000815260040161041490610b18565b60405180910390fd5b600160008681526020019081526020016000206005015460016000878152602001908152602001600020600601546001600088815260200190815260200160002060070154600160008981526020019081526020016000206008015493509350935093509193509193565b60016020528060005260406000206000915090508060000160009054906101000a900473ffffffffffffffffffffffffffffffffffffffff16908060010154908060020154908060030154908060040154908060050154908060060154908060070154908060080154905089565b600086868686868660405160200161051396959493929190610a3c565b6040516020818303038152906040528051906020012090509695505050505050565b60035481565b6000610545610775565b60006105558989898989896104f6565b905033826000019073ffffffffffffffffffffffffffffffffffffffff16908173ffffffffffffffffffffffffffffffffffffffff1681525050808260200181815250506004870267ffffffffffffffff1682604001818152505060028602600688020167ffffffffffffffff168260600181815250506002860267ffffffffffffffff168260800181815250506004870267ffffffffffffffff168260a0018181525050878486010167ffffffffffffffff168260c00181815250506002860267ffffffffffffffff168260e001818152505042826101000181815250506003600081548092919060010191905055508160016000600354815260200190815260200160002060008201518160000160006101000a81548173ffffffffffffffffffffffffffffffffffffffff021916908373ffffffffffffffffffffffffffffffffffffffff1602179055506020820151816001015560408201518160020155606082015181600301556080820151816004015560a0820151816005015560c0820151816006015560e08201518160070155610100820151816008015590505060016002600083815260200190815260200160002060006101000a81548160ff021916908315150217905550600354925050509695505050505050565b6000806107458888888888886104f6565b90506002600082815260200190815260200160002060009054906101000a900460ff169150509695505050505050565b604051806101200160405280600073ffffffffffffffffffffffffffffffffffffffff16815260200160008019168152602001600081526020016000815260200160008152602001600081526020016000815260200160008152602001600081525090565b6000813590506107e981610c0f565b92915050565b6000813590506107fe81610c26565b92915050565b60008135905061081381610c3d565b92915050565b60008135905061082881610c54565b92915050565b60008060008060008060c0878903121561084757600080fd5b600061085589828a016107da565b965050602061086689828a01610819565b955050604061087789828a01610819565b945050606061088889828a01610819565b935050608061089989828a01610819565b92505060a06108aa89828a01610819565b9150509295509295509295565b6000602082840312156108c957600080fd5b60006108d7848285016107ef565b91505092915050565b6000602082840312156108f257600080fd5b600061090084828501610804565b91505092915050565b61091281610ba9565b82525050565b61092181610bbb565b82525050565b61093081610bc7565b82525050565b6000610943601e83610b98565b91507f4c697374206f66206d6174657269616c20646f65736e277420657869737400006000830152602082019050919050565b61097f81610bf1565b82525050565b61098e81610bfb565b82525050565b60006020820190506109a96000830184610909565b92915050565b6000610120820190506109c5600083018c610909565b6109d2602083018b610927565b6109df604083018a610976565b6109ec6060830189610976565b6109f96080830188610976565b610a0660a0830187610976565b610a1360c0830186610976565b610a2060e0830185610976565b610a2e610100830184610976565b9a9950505050505050505050565b600060c082019050610a516000830189610909565b610a5e6020830188610985565b610a6b6040830187610985565b610a786060830186610985565b610a856080830185610985565b610a9260a0830184610985565b979650505050505050565b6000602082019050610ab26000830184610918565b92915050565b6000602082019050610acd6000830184610927565b92915050565b6000608082019050610ae86000830187610927565b610af56020830186610976565b610b026040830185610976565b610b0f6060830184610976565b95945050505050565b60006020820190508181036000830152610b3181610936565b9050919050565b6000602082019050610b4d6000830184610976565b92915050565b6000608082019050610b686000830187610976565b610b756020830186610976565b610b826040830185610976565b610b8f6060830184610976565b95945050505050565b600082825260208201905092915050565b6000610bb482610bd1565b9050919050565b60008115159050919050565b6000819050919050565b600073ffffffffffffffffffffffffffffffffffffffff82169050919050565b6000819050919050565b600067ffffffffffffffff82169050919050565b610c1881610ba9565b8114610c2357600080fd5b50565b610c2f81610bc7565b8114610c3a57600080fd5b50565b610c4681610bf1565b8114610c5157600080fd5b50565b610c5d81610bfb565b8114610c6857600080fd5b5056fea365627a7a7231582019e0a4241c82404a648af36afa8d9e8911e845214d1ecba455b473f548b106f06c6578706572696d656e74616cf564736f6c63430005100040",
  "source": "pragma solidity >=0.5.0 <0.8.0;\r\npragma experimental ABIEncoderV2;\r\n//import \"./ProjectOffice.sol\";\r\n// SPDX-License-Identifier: MIT\r\n\r\n\r\n\r\ncontract MaterialProvider {\r\n\r\n    address project;\r\n\r\n    ////////Define a list of material for a given command\r\n\r\n    struct Materials{\r\n        address materialId;\r\n        bytes32 commandId;\r\n        uint aluminiumBars;\r\n        uint stainlessSteelSheets;\r\n        uint bumperRubberBands;\r\n        uint interiorLightBulbs;\r\n        uint displaylEDs;\r\n        uint springs;\r\n        uint256 creation_date;\r\n    }\r\n\r\n    mapping(uint => Materials) public materials;\r\n\r\n    ///When a Material List is submitted fro a given command, we associate the commandAddress to the value \"true\", which\r\n        //tells us that the command was created (A mapping return \"false\" by default, so any mappping from a commandAddress\r\n        // that is not yet created will return \"false\"). THis is just a check so that each command has a unique Material list.\r\n    mapping (bytes32 => bool) public addresses;\r\n\r\n    constructor(address homies) public {\r\n        project = homies;\r\n    }\r\n\r\n    ////Indexing the various material lists\r\n\r\n    uint public materialListCount = 0;\r\n\r\n\r\n\r\n    ///////////Various getters//////////\r\n        /////////////WE had to make two getMaterial method, since solidity has a maximum number of returned values\r\n        /////Also, it doesnt return struct, hence why we return the attributes has an array.\r\n        function getMaterials1(uint index) public view returns (bytes32, uint, uint, uint ){\r\n\r\n            require(materials[index].materialId != address(0), \"List of material doesn't exist\");\r\n            return (materials[index].commandId, materials[index].aluminiumBars, materials[index].stainlessSteelSheets,materials[index].bumperRubberBands);\r\n        }\r\n\r\n        function getMaterials2(uint index) public view returns (uint, uint, uint, uint256){\r\n\r\n            require(materials[index].materialId != address(0), \"List of material doesn't exist\");\r\n            return (materials[index].interiorLightBulbs, materials[index].displaylEDs, materials[index].springs, materials[index].creation_date);\r\n        }\r\n\r\n        function getBool(address index, uint64 controllers, uint64 shafts, uint64 doors, uint64 buttons, uint64 displays) public view returns (bool){\r\n            bytes32 commandId = getUniqueHash(index, controllers, shafts, doors, buttons, displays);\r\n            return addresses[commandId];\r\n\r\n        }\r\n\r\n        function getAddress() public view returns (address){\r\n            return msg.sender;\r\n        }\r\n//////This gives a unique hash to a material list, so that it is easily identifiable////////////\r\n\r\n        function getUniqueHash(address index, uint64 controllers, uint64 shafts, uint64 doors, uint64 buttons, uint64 displays) public pure returns (bytes32){\r\n            return keccak256(abi.encode(index,controllers, shafts, doors, buttons, displays));\r\n        }\r\n\r\n///////Create list of material from a command and add it to mapping\r\n\r\n     function createMaterials( address index, uint64 controllers, uint64 shafts, uint64 doors, uint64 buttons, uint64 displays ) public returns (uint){\r\n\r\n                \r\n        Materials memory new_material;\r\n\r\n        ///////This is used to give a unique hash to a given command. Since it depend on all of it'sa attribute,\r\n        //////Any change in the comman change the hash, thus making it unique to that command/////////////\r\n\r\n        bytes32 commandId = getUniqueHash(index, controllers, shafts, doors, buttons, displays);\r\n\r\n        new_material.materialId = msg.sender;\r\n        new_material.commandId = commandId;\r\n        new_material.aluminiumBars = shafts*4;\r\n        new_material.stainlessSteelSheets = shafts*6 + doors*2;\r\n        new_material.bumperRubberBands = doors*2;\r\n        new_material.interiorLightBulbs = shafts*4;\r\n        new_material.displaylEDs = buttons + displays + controllers;\r\n        new_material.springs = doors*2;\r\n        new_material.creation_date = block.timestamp;\r\n            \r\n        materialListCount++;\r\n        materials[materialListCount] = new_material;\r\n\r\n        ////THis is used to check if a command already submitted a material list////////////////\r\n        addresses[commandId] = true;\r\n\r\n        return  materialListCount;\r\n         }\r\n\r\n\r\n}",
  "sourcePath": "C:/Users/tardi/Rocket_Elevators_Smart_Contracts/contracts/MaterialProvider.sol",
  "compiler": {
    "name": "solc",
    "version": "0.5.16+commit.9c3226ce.Emscripten.clang"
  },
  "schemaVersion": "3.3.2",
  "updatedAt": "2020-12-12T02:25:54.331Z",
  "networkType": "ethereum",
  "devdoc": {
    "methods": {}
  },
  "userdoc": {
    "methods": {
      "createMaterials(address,uint64,uint64,uint64,uint64,uint64)": {
        "notice": "////Create list of material from a command and add it to mapping"
      },
      "getMaterials1(uint256)": {
        "notice": "////////Various getters////////// //////////WE had to make two getMaterial method, since solidity has a maximum number of returned values //Also, it doesnt return struct, hence why we return the attributes has an array."
      },
      "getUniqueHash(address,uint64,uint64,uint64,uint64,uint64)": {
        "notice": "///This gives a unique hash to a material list, so that it is easily identifiable////////////"
      }
    }
  }
}