{
  "contractName": "MaterialProvider",
  "abi": [
    {
      "constant": true,
      "inputs": [],
      "name": "materialListCount",
      "outputs": [
        {
          "internalType": "uint256",
          "name": "",
          "type": "uint256"
        }
      ],
      "payable": false,
      "stateMutability": "view",
      "type": "function"
    },
    {
      "constant": true,
      "inputs": [
        {
          "internalType": "uint256",
          "name": "index",
          "type": "uint256"
        }
      ],
      "name": "getMaterials1",
      "outputs": [
        {
          "internalType": "address",
          "name": "",
          "type": "address"
        },
        {
          "internalType": "uint256",
          "name": "",
          "type": "uint256"
        },
        {
          "internalType": "uint256",
          "name": "",
          "type": "uint256"
        },
        {
          "internalType": "uint256",
          "name": "",
          "type": "uint256"
        }
      ],
      "payable": false,
      "stateMutability": "view",
      "type": "function"
    },
    {
      "constant": true,
      "inputs": [
        {
          "internalType": "uint256",
          "name": "index",
          "type": "uint256"
        }
      ],
      "name": "getMaterials2",
      "outputs": [
        {
          "internalType": "uint256",
          "name": "",
          "type": "uint256"
        },
        {
          "internalType": "uint256",
          "name": "",
          "type": "uint256"
        },
        {
          "internalType": "uint256",
          "name": "",
          "type": "uint256"
        },
        {
          "internalType": "uint256",
          "name": "",
          "type": "uint256"
        }
      ],
      "payable": false,
      "stateMutability": "view",
      "type": "function"
    },
    {
      "constant": true,
      "inputs": [
        {
          "internalType": "address",
          "name": "index",
          "type": "address"
        }
      ],
      "name": "getBool",
      "outputs": [
        {
          "internalType": "bool",
          "name": "",
          "type": "bool"
        }
      ],
      "payable": false,
      "stateMutability": "view",
      "type": "function"
    },
    {
      "constant": false,
      "inputs": [
        {
          "internalType": "address",
          "name": "index",
          "type": "address"
        },
        {
          "internalType": "uint64",
          "name": "controllers",
          "type": "uint64"
        },
        {
          "internalType": "uint64",
          "name": "shafts",
          "type": "uint64"
        },
        {
          "internalType": "uint64",
          "name": "doors",
          "type": "uint64"
        },
        {
          "internalType": "uint64",
          "name": "buttons",
          "type": "uint64"
        },
        {
          "internalType": "uint64",
          "name": "displays",
          "type": "uint64"
        }
      ],
      "name": "createMaterials",
      "outputs": [
        {
          "internalType": "uint256",
          "name": "",
          "type": "uint256"
        }
      ],
      "payable": false,
      "stateMutability": "nonpayable",
      "type": "function"
    }
  ],
  "bytecode": "0x6080604052600060025534801561001557600080fd5b506107d6806100256000396000f3fe608060405234801561001057600080fd5b50600436106100575760003560e01c80631fdabba11461005c5780634cb9e09e1461008f57806374a6fe27146100bf578063c312fa0a146100f2578063caf5d4bf14610110575b600080fd5b610076600480360361007191908101906105dc565b610140565b6040516100869493929190610632565b60405180910390f35b6100a960048036036100a4919081019061052a565b6101cd565b6040516100b69190610677565b60405180910390f35b6100d960048036036100d491908101906105dc565b610223565b6040516100e994939291906106ad565b60405180910390f35b6100fa610290565b6040516101079190610692565b60405180910390f35b61012a60048036036101259190810190610553565b610296565b6040516101379190610692565b60405180910390f35b60008060008060008086815260200190815260200160002060000160009054906101000a900473ffffffffffffffffffffffffffffffffffffffff1660008087815260200190815260200160002060010154600080888152602001908152602001600020600201546000808981526020019081526020016000206003015493509350935093509193509193565b6000600160008373ffffffffffffffffffffffffffffffffffffffff1673ffffffffffffffffffffffffffffffffffffffff16815260200190815260200160002060009054906101000a900460ff169050919050565b6000806000806000808681526020019081526020016000206004015460008087815260200190815260200160002060050154600080888152602001908152602001600020600601546000808981526020019081526020016000206007015493509350935093509193509193565b60025481565b60006102a0610490565b33816000019073ffffffffffffffffffffffffffffffffffffffff16908173ffffffffffffffffffffffffffffffffffffffff16815250506004860267ffffffffffffffff1681602001818152505060028502600687020167ffffffffffffffff168160400181815250506002850267ffffffffffffffff168160600181815250506004860267ffffffffffffffff16816080018181525050868385010167ffffffffffffffff168160a00181815250506002850267ffffffffffffffff168160c0018181525050428160e001818152505060026000815480929190600101919050555080600080600254815260200190815260200160002060008201518160000160006101000a81548173ffffffffffffffffffffffffffffffffffffffff021916908373ffffffffffffffffffffffffffffffffffffffff1602179055506020820151816001015560408201518160020155606082015181600301556080820151816004015560a0820151816005015560c0820151816006015560e0820151816007015590505060018060008a73ffffffffffffffffffffffffffffffffffffffff1673ffffffffffffffffffffffffffffffffffffffff16815260200190815260200160002060006101000a81548160ff0219169083151502179055506002549150509695505050505050565b604051806101000160405280600073ffffffffffffffffffffffffffffffffffffffff168152602001600081526020016000815260200160008152602001600081526020016000815260200160008152602001600081525090565b6000813590506104fa8161074e565b92915050565b60008135905061050f81610765565b92915050565b6000813590506105248161077c565b92915050565b60006020828403121561053c57600080fd5b600061054a848285016104eb565b91505092915050565b60008060008060008060c0878903121561056c57600080fd5b600061057a89828a016104eb565b965050602061058b89828a01610515565b955050604061059c89828a01610515565b94505060606105ad89828a01610515565b93505060806105be89828a01610515565b92505060a06105cf89828a01610515565b9150509295509295509295565b6000602082840312156105ee57600080fd5b60006105fc84828501610500565b91505092915050565b61060e816106f2565b82525050565b61061d81610704565b82525050565b61062c81610730565b82525050565b60006080820190506106476000830187610605565b6106546020830186610623565b6106616040830185610623565b61066e6060830184610623565b95945050505050565b600060208201905061068c6000830184610614565b92915050565b60006020820190506106a76000830184610623565b92915050565b60006080820190506106c26000830187610623565b6106cf6020830186610623565b6106dc6040830185610623565b6106e96060830184610623565b95945050505050565b60006106fd82610710565b9050919050565b60008115159050919050565b600073ffffffffffffffffffffffffffffffffffffffff82169050919050565b6000819050919050565b600067ffffffffffffffff82169050919050565b610757816106f2565b811461076257600080fd5b50565b61076e81610730565b811461077957600080fd5b50565b6107858161073a565b811461079057600080fd5b5056fea365627a7a72315820f3a428aa0ca74558a889813ac7819aff3cb53c184216a17172438ede71d66a1e6c6578706572696d656e74616cf564736f6c63430005100040",
  "source": "pragma solidity >=0.5.0 <0.8.0;\r\npragma experimental ABIEncoderV2;\r\nimport \"./ProjectOffice.sol\";\r\n// SPDX-License-Identifier: MIT\r\n\r\n\r\n\r\ncontract MaterialProvider {\r\n\r\n    struct Materials{\r\n        address materialId;\r\n        uint aluminiumBars;\r\n        uint stainlessSteelSheets;\r\n        uint bumperRubberBands;\r\n        uint interiorLightBulbs;\r\n        uint displaylEDs;\r\n        uint springs;\r\n        uint256 creation_date;\r\n    }\r\n\r\n    mapping(uint => Materials) materials;\r\n    mapping (address => bool) addresses;\r\n\r\n    uint public materialListCount = 0 ;\r\n\r\n        function getMaterials1(uint index) public view returns (address, uint, uint, uint){\r\n            return (materials[index].materialId, materials[index].aluminiumBars, materials[index].stainlessSteelSheets,materials[index].bumperRubberBands);\r\n        }\r\n        function getMaterials2(uint index) public view returns (uint, uint, uint, uint256){\r\n            return (materials[index].interiorLightBulbs, materials[index].displaylEDs, materials[index].springs, materials[index].creation_date);\r\n        }\r\n        function getBool(address index) public view returns (bool){\r\n            return addresses[index];\r\n        }\r\n\r\n     function createMaterials( address index, uint64 controllers, uint64 shafts, uint64 doors, uint64 buttons, uint64 displays ) public returns (uint){\r\n\r\n                \r\n        Materials memory new_material;\r\n\r\n        new_material.materialId = msg.sender;\r\n        new_material.aluminiumBars = shafts*4;\r\n        new_material.stainlessSteelSheets = shafts*6 + doors*2;\r\n        new_material.bumperRubberBands = doors*2;\r\n        new_material.interiorLightBulbs = shafts*4;\r\n        new_material.displaylEDs = buttons + displays + controllers;\r\n        new_material.springs = doors*2;\r\n        new_material.creation_date = block.timestamp;\r\n            \r\n        materialListCount++;\r\n        materials[materialListCount] = new_material;\r\n        addresses[index] = true;\r\n\r\n        return  materialListCount;\r\n         }\r\n}",
  "sourcePath": "C:/Users/tardi/Rocket_Elevators_Smart_Contracts/contracts/Materials.sol",
  "compiler": {
    "name": "solc",
    "version": "0.5.16+commit.9c3226ce.Emscripten.clang"
  },
  "schemaVersion": "3.3.2",
  "updatedAt": "2020-12-10T06:25:30.023Z",
  "networkType": "ethereum",
  "devdoc": {
    "methods": {}
  },
  "userdoc": {
    "methods": {}
  }
}