{
  "contractName": "MaterialProvider",
  "abi": [
    {
      "constant": true,
      "inputs": [],
      "name": "materialListCount",
      "outputs": [
        {
          "internalType": "uint256",
          "name": "",
          "type": "uint256"
        }
      ],
      "payable": false,
      "stateMutability": "view",
      "type": "function"
    },
    {
      "constant": true,
      "inputs": [
        {
          "internalType": "uint256",
          "name": "index",
          "type": "uint256"
        }
      ],
      "name": "getMaterials1",
      "outputs": [
        {
          "internalType": "bytes32",
          "name": "",
          "type": "bytes32"
        },
        {
          "internalType": "uint256",
          "name": "",
          "type": "uint256"
        },
        {
          "internalType": "uint256",
          "name": "",
          "type": "uint256"
        },
        {
          "internalType": "uint256",
          "name": "",
          "type": "uint256"
        }
      ],
      "payable": false,
      "stateMutability": "view",
      "type": "function"
    },
    {
      "constant": true,
      "inputs": [
        {
          "internalType": "uint256",
          "name": "index",
          "type": "uint256"
        }
      ],
      "name": "getMaterials2",
      "outputs": [
        {
          "internalType": "uint256",
          "name": "",
          "type": "uint256"
        },
        {
          "internalType": "uint256",
          "name": "",
          "type": "uint256"
        },
        {
          "internalType": "uint256",
          "name": "",
          "type": "uint256"
        },
        {
          "internalType": "uint256",
          "name": "",
          "type": "uint256"
        }
      ],
      "payable": false,
      "stateMutability": "view",
      "type": "function"
    },
    {
      "constant": true,
      "inputs": [
        {
          "internalType": "address",
          "name": "index",
          "type": "address"
        },
        {
          "internalType": "uint64",
          "name": "controllers",
          "type": "uint64"
        },
        {
          "internalType": "uint64",
          "name": "shafts",
          "type": "uint64"
        },
        {
          "internalType": "uint64",
          "name": "doors",
          "type": "uint64"
        },
        {
          "internalType": "uint64",
          "name": "buttons",
          "type": "uint64"
        },
        {
          "internalType": "uint64",
          "name": "displays",
          "type": "uint64"
        }
      ],
      "name": "getBool",
      "outputs": [
        {
          "internalType": "bool",
          "name": "",
          "type": "bool"
        }
      ],
      "payable": false,
      "stateMutability": "view",
      "type": "function"
    },
    {
      "constant": true,
      "inputs": [],
      "name": "getAddress",
      "outputs": [
        {
          "internalType": "address",
          "name": "",
          "type": "address"
        }
      ],
      "payable": false,
      "stateMutability": "view",
      "type": "function"
    },
    {
      "constant": false,
      "inputs": [
        {
          "internalType": "address",
          "name": "index",
          "type": "address"
        },
        {
          "internalType": "uint64",
          "name": "controllers",
          "type": "uint64"
        },
        {
          "internalType": "uint64",
          "name": "shafts",
          "type": "uint64"
        },
        {
          "internalType": "uint64",
          "name": "doors",
          "type": "uint64"
        },
        {
          "internalType": "uint64",
          "name": "buttons",
          "type": "uint64"
        },
        {
          "internalType": "uint64",
          "name": "displays",
          "type": "uint64"
        }
      ],
      "name": "createMaterials",
      "outputs": [
        {
          "internalType": "uint256",
          "name": "",
          "type": "uint256"
        }
      ],
      "payable": false,
      "stateMutability": "nonpayable",
      "type": "function"
    }
  ],
  "bytecode": "0x6080604052600060025534801561001557600080fd5b50610893806100256000396000f3fe608060405234801561001057600080fd5b50600436106100625760003560e01c80631fdabba11461006757806338cc48311461009a57806374a6fe27146100b8578063c312fa0a146100eb578063caf5d4bf14610109578063ccefcf3714610139575b600080fd5b610081600480360361007c91908101906105f5565b610169565b6040516100919493929190610700565b60405180910390f35b6100a26101d6565b6040516100af9190610669565b60405180910390f35b6100d260048036036100cd91908101906105f5565b6101de565b6040516100e29493929190610760565b60405180910390f35b6100f361024b565b6040516101009190610745565b60405180910390f35b610123600480360361011e919081019061056c565b610251565b6040516101309190610745565b60405180910390f35b610153600480360361014e919081019061056c565b610448565b60405161016091906106e5565b60405180910390f35b6000806000806000808681526020019081526020016000206001015460008087815260200190815260200160002060020154600080888152602001908152602001600020600301546000808981526020019081526020016000206004015493509350935093509193509193565b600033905090565b6000806000806000808681526020019081526020016000206005015460008087815260200190815260200160002060060154600080888152602001908152602001600020600701546000808981526020019081526020016000206008015493509350935093509193509193565b60025481565b600061025b6104c8565b600061026b898989898989610489565b905033826000019073ffffffffffffffffffffffffffffffffffffffff16908173ffffffffffffffffffffffffffffffffffffffff1681525050808260200181815250506004870267ffffffffffffffff1682604001818152505060028602600688020167ffffffffffffffff168260600181815250506002860267ffffffffffffffff168260800181815250506004870267ffffffffffffffff168260a0018181525050878486010167ffffffffffffffff168260c00181815250506002860267ffffffffffffffff168260e0018181525050428261010001818152505060026000815480929190600101919050555081600080600254815260200190815260200160002060008201518160000160006101000a81548173ffffffffffffffffffffffffffffffffffffffff021916908373ffffffffffffffffffffffffffffffffffffffff1602179055506020820151816001015560408201518160020155606082015181600301556080820151816004015560a0820151816005015560c0820151816006015560e082015181600701556101008201518160080155905050600180600083815260200190815260200160002060006101000a81548160ff021916908315150217905550600254925050509695505050505050565b600080610459888888888888610489565b90506001600082815260200190815260200160002060009054906101000a900460ff169150509695505050505050565b60008686868686866040516020016104a696959493929190610684565b6040516020818303038152906040528051906020012090509695505050505050565b604051806101200160405280600073ffffffffffffffffffffffffffffffffffffffff16815260200160008019168152602001600081526020016000815260200160008152602001600081526020016000815260200160008152602001600081525090565b60008135905061053c8161080b565b92915050565b60008135905061055181610822565b92915050565b60008135905061056681610839565b92915050565b60008060008060008060c0878903121561058557600080fd5b600061059389828a0161052d565b96505060206105a489828a01610557565b95505060406105b589828a01610557565b94505060606105c689828a01610557565b93505060806105d789828a01610557565b92505060a06105e889828a01610557565b9150509295509295509295565b60006020828403121561060757600080fd5b600061061584828501610542565b91505092915050565b610627816107a5565b82525050565b610636816107b7565b82525050565b610645816107c3565b82525050565b610654816107ed565b82525050565b610663816107f7565b82525050565b600060208201905061067e600083018461061e565b92915050565b600060c082019050610699600083018961061e565b6106a6602083018861065a565b6106b3604083018761065a565b6106c0606083018661065a565b6106cd608083018561065a565b6106da60a083018461065a565b979650505050505050565b60006020820190506106fa600083018461062d565b92915050565b6000608082019050610715600083018761063c565b610722602083018661064b565b61072f604083018561064b565b61073c606083018461064b565b95945050505050565b600060208201905061075a600083018461064b565b92915050565b6000608082019050610775600083018761064b565b610782602083018661064b565b61078f604083018561064b565b61079c606083018461064b565b95945050505050565b60006107b0826107cd565b9050919050565b60008115159050919050565b6000819050919050565b600073ffffffffffffffffffffffffffffffffffffffff82169050919050565b6000819050919050565b600067ffffffffffffffff82169050919050565b610814816107a5565b811461081f57600080fd5b50565b61082b816107ed565b811461083657600080fd5b50565b610842816107f7565b811461084d57600080fd5b5056fea365627a7a72315820e0f39bbbba635f6425c5000da42ebff7cbfce87f78c961be07d575bf55d574856c6578706572696d656e74616cf564736f6c63430005100040",
  "source": "pragma solidity >=0.5.0 <0.8.0;\r\npragma experimental ABIEncoderV2;\r\nimport \"./ProjectOffice.sol\";\r\n// SPDX-License-Identifier: MIT\r\n\r\n\r\n\r\ncontract MaterialProvider {\r\n\r\n    struct Materials{\r\n        address materialId;\r\n        bytes32 commandId;\r\n        uint aluminiumBars;\r\n        uint stainlessSteelSheets;\r\n        uint bumperRubberBands;\r\n        uint interiorLightBulbs;\r\n        uint displaylEDs;\r\n        uint springs;\r\n        uint256 creation_date;\r\n    }\r\n\r\n    mapping(uint => Materials) materials;\r\n    mapping (bytes32 => bool) addresses;\r\n\r\n    uint public materialListCount = 0;\r\n\r\n        function getMaterials1(uint index) public view returns (bytes32, uint, uint, uint ){\r\n            return (materials[index].commandId, materials[index].aluminiumBars, materials[index].stainlessSteelSheets,materials[index].bumperRubberBands);\r\n        }\r\n        function getMaterials2(uint index) public view returns (uint, uint, uint, uint256){\r\n            return (materials[index].interiorLightBulbs, materials[index].displaylEDs, materials[index].springs, materials[index].creation_date);\r\n        }\r\n        function getBool(address index, uint64 controllers, uint64 shafts, uint64 doors, uint64 buttons, uint64 displays) public view returns (bool){\r\n            \r\n            bytes32 commandId = getUniqueHash(index, controllers, shafts, doors, buttons, displays);\r\n            return addresses[commandId];\r\n        }\r\n        function getUniqueHash(address index, uint64 controllers, uint64 shafts, uint64 doors, uint64 buttons, uint64 displays) private pure returns (bytes32){\r\n\r\n            return keccak256(abi.encode(index,controllers, shafts, doors, buttons, displays));\r\n        }\r\n\r\n        function getAddress() public view returns (address){\r\n\r\n            return msg.sender;\r\n        }\r\n\r\n\r\n     function createMaterials( address index, uint64 controllers, uint64 shafts, uint64 doors, uint64 buttons, uint64 displays ) public returns (uint){\r\n\r\n                \r\n        Materials memory new_material;\r\n\r\n        bytes32 commandId = getUniqueHash(index, controllers, shafts, doors, buttons, displays);\r\n\r\n        new_material.materialId = msg.sender;\r\n        new_material.commandId = commandId;\r\n        new_material.aluminiumBars = shafts*4;\r\n        new_material.stainlessSteelSheets = shafts*6 + doors*2;\r\n        new_material.bumperRubberBands = doors*2;\r\n        new_material.interiorLightBulbs = shafts*4;\r\n        new_material.displaylEDs = buttons + displays + controllers;\r\n        new_material.springs = doors*2;\r\n        new_material.creation_date = block.timestamp;\r\n            \r\n        materialListCount++;\r\n        materials[materialListCount] = new_material;\r\n        addresses[commandId] = true;\r\n\r\n        return  materialListCount;\r\n         }\r\n\r\n\r\n}",
  "sourcePath": "C:/Users/tardi/Rocket_Elevators_Smart_Contracts/contracts/Materials.sol",
  "compiler": {
    "name": "solc",
    "version": "0.5.16+commit.9c3226ce.Emscripten.clang"
  },
  "schemaVersion": "3.3.2",
  "updatedAt": "2020-12-10T16:42:55.207Z",
  "networkType": "ethereum",
  "devdoc": {
    "methods": {}
  },
  "userdoc": {
    "methods": {}
  }
}