{
  "contractName": "ProjectOffice",
  "abi": [
    {
      "inputs": [],
      "payable": false,
      "stateMutability": "nonpayable",
      "type": "constructor"
    },
    {
      "constant": true,
      "inputs": [],
      "name": "componentsCount",
      "outputs": [
        {
          "internalType": "uint256",
          "name": "",
          "type": "uint256"
        }
      ],
      "payable": false,
      "stateMutability": "view",
      "type": "function"
    },
    {
      "constant": true,
      "inputs": [
        {
          "internalType": "uint256",
          "name": "index",
          "type": "uint256"
        }
      ],
      "name": "getComponents",
      "outputs": [
        {
          "components": [
            {
              "internalType": "address",
              "name": "componentId",
              "type": "address"
            },
            {
              "internalType": "uint64",
              "name": "Controllers",
              "type": "uint64"
            },
            {
              "internalType": "uint64",
              "name": "Shafts",
              "type": "uint64"
            },
            {
              "internalType": "uint64",
              "name": "Doors",
              "type": "uint64"
            },
            {
              "internalType": "uint64",
              "name": "Buttons",
              "type": "uint64"
            },
            {
              "internalType": "uint64",
              "name": "Displays",
              "type": "uint64"
            }
          ],
          "internalType": "struct ProjectOffice.Components",
          "name": "",
          "type": "tuple"
        }
      ],
      "payable": false,
      "stateMutability": "view",
      "type": "function"
    },
    {
      "constant": false,
      "inputs": [
        {
          "internalType": "uint64",
          "name": "Batteries",
          "type": "uint64"
        },
        {
          "internalType": "uint64",
          "name": "Columns",
          "type": "uint64"
        },
        {
          "internalType": "uint64",
          "name": "Elevators",
          "type": "uint64"
        },
        {
          "internalType": "uint64",
          "name": "Floors",
          "type": "uint64"
        }
      ],
      "name": "addComponents",
      "outputs": [],
      "payable": false,
      "stateMutability": "nonpayable",
      "type": "function"
    }
  ],
  "bytecode": "0x6080604052600060025534801561001557600080fd5b5061001e610276565b33816000019073ffffffffffffffffffffffffffffffffffffffff16908173ffffffffffffffffffffffffffffffffffffffff16815250506001816040019067ffffffffffffffff16908167ffffffffffffffff16815250506002816020019067ffffffffffffffff16908167ffffffffffffffff16815250506003816060019067ffffffffffffffff16908167ffffffffffffffff16815250506004816080019067ffffffffffffffff16908167ffffffffffffffff168152505060058160a0019067ffffffffffffffff16908167ffffffffffffffff16815250506002600081548092919060010191905055506001819080600181540180825580915050906001820390600052602060002090600202016000909192909190915060008201518160000160006101000a81548173ffffffffffffffffffffffffffffffffffffffff021916908373ffffffffffffffffffffffffffffffffffffffff16021790555060208201518160000160146101000a81548167ffffffffffffffff021916908367ffffffffffffffff16021790555060408201518160010160006101000a81548167ffffffffffffffff021916908367ffffffffffffffff16021790555060608201518160010160086101000a81548167ffffffffffffffff021916908367ffffffffffffffff16021790555060808201518160010160106101000a81548167ffffffffffffffff021916908367ffffffffffffffff16021790555060a08201518160010160186101000a81548167ffffffffffffffff021916908367ffffffffffffffff160217905550505050506102f4565b6040518060c00160405280600073ffffffffffffffffffffffffffffffffffffffff168152602001600067ffffffffffffffff168152602001600067ffffffffffffffff168152602001600067ffffffffffffffff168152602001600067ffffffffffffffff168152602001600067ffffffffffffffff1681525090565b61077a806103036000396000f3fe608060405234801561001057600080fd5b50600436106100415760003560e01c80633d61f8011461004657806352011f18146100625780637dcf585714610080575b600080fd5b610060600480360361005b9190810190610578565b6100b0565b005b61006a61031c565b604051610077919061069e565b60405180910390f35b61009a6004803603610095919081019061054f565b610322565b6040516100a79190610683565b60405180910390f35b6100b86104a7565b33816000019073ffffffffffffffffffffffffffffffffffffffff16908173ffffffffffffffffffffffffffffffffffffffff168152505082816040019067ffffffffffffffff16908167ffffffffffffffff168152505084816020019067ffffffffffffffff16908167ffffffffffffffff1681525050600282026002840201816060019067ffffffffffffffff16908167ffffffffffffffff1681525050601084026008840201816080019067ffffffffffffffff16908167ffffffffffffffff1681525050828160a0019067ffffffffffffffff16908167ffffffffffffffff16815250506002600081548092919060010191905055506001819080600181540180825580915050906001820390600052602060002090600202016000909192909190915060008201518160000160006101000a81548173ffffffffffffffffffffffffffffffffffffffff021916908373ffffffffffffffffffffffffffffffffffffffff16021790555060208201518160000160146101000a81548167ffffffffffffffff021916908367ffffffffffffffff16021790555060408201518160010160006101000a81548167ffffffffffffffff021916908367ffffffffffffffff16021790555060608201518160010160086101000a81548167ffffffffffffffff021916908367ffffffffffffffff16021790555060808201518160010160106101000a81548167ffffffffffffffff021916908367ffffffffffffffff16021790555060a08201518160010160186101000a81548167ffffffffffffffff021916908367ffffffffffffffff1602179055505050505050505050565b60025481565b61032a6104a7565b6001828154811061033757fe5b90600052602060002090600202016040518060c00160405290816000820160009054906101000a900473ffffffffffffffffffffffffffffffffffffffff1673ffffffffffffffffffffffffffffffffffffffff1673ffffffffffffffffffffffffffffffffffffffff1681526020016000820160149054906101000a900467ffffffffffffffff1667ffffffffffffffff1667ffffffffffffffff1681526020016001820160009054906101000a900467ffffffffffffffff1667ffffffffffffffff1667ffffffffffffffff1681526020016001820160089054906101000a900467ffffffffffffffff1667ffffffffffffffff1667ffffffffffffffff1681526020016001820160109054906101000a900467ffffffffffffffff1667ffffffffffffffff1667ffffffffffffffff1681526020016001820160189054906101000a900467ffffffffffffffff1667ffffffffffffffff1667ffffffffffffffff16815250509050919050565b6040518060c00160405280600073ffffffffffffffffffffffffffffffffffffffff168152602001600067ffffffffffffffff168152602001600067ffffffffffffffff168152602001600067ffffffffffffffff168152602001600067ffffffffffffffff168152602001600067ffffffffffffffff1681525090565b60008135905061053481610709565b92915050565b60008135905061054981610720565b92915050565b60006020828403121561056157600080fd5b600061056f84828501610525565b91505092915050565b6000806000806080858703121561058e57600080fd5b600061059c8782880161053a565b94505060206105ad8782880161053a565b93505060406105be8782880161053a565b92505060606105cf8782880161053a565b91505092959194509250565b6105e4816106b9565b82525050565b60c08201600082015161060060008501826105db565b5060208201516106136020850182610674565b5060408201516106266040850182610674565b5060608201516106396060850182610674565b50608082015161064c6080850182610674565b5060a082015161065f60a0850182610674565b50505050565b61066e816106eb565b82525050565b61067d816106f5565b82525050565b600060c08201905061069860008301846105ea565b92915050565b60006020820190506106b36000830184610665565b92915050565b60006106c4826106cb565b9050919050565b600073ffffffffffffffffffffffffffffffffffffffff82169050919050565b6000819050919050565b600067ffffffffffffffff82169050919050565b610712816106eb565b811461071d57600080fd5b50565b610729816106f5565b811461073457600080fd5b5056fea365627a7a72315820f1798670a8b22a2399195138d21aadc9fa91354d605729807db448447b28f9ec6c6578706572696d656e74616cf564736f6c63430005100040",
  "source": "pragma solidity >=0.4.22 <0.8.0;\r\npragma experimental ABIEncoderV2;\r\n//SPDX-License-Identifier: MIT\r\ncontract ProjectOffice {\r\n\r\n    address requester;\r\n\r\n    struct Components {\r\n        address componentId;\r\n        uint64 Controllers;\r\n        uint64 Shafts;\r\n        uint64 Doors;\r\n        uint64 Buttons;\r\n        uint64 Displays;\r\n    }\r\n\r\n    Components[] components;\r\n    uint public componentsCount = 0;\r\n\r\n    function getComponents(uint index) public view returns (Components memory){\r\n        return components[index];\r\n    }\r\n\r\n    constructor() public {\r\n\r\n        Components memory m;\r\n        m.componentId = msg.sender;\r\n        m.Shafts = 1;\r\n        m.Controllers = 2;\r\n        m.Doors = 3;\r\n        m.Buttons = 4;\r\n        m.Displays = 5;\r\n\r\n        componentsCount++;\r\n        components.push(m);\r\n    }\r\n    //Emma\r\n    // addComponents by requester with input from the Order\r\n    function addComponents(uint64 Batteries, uint64 Columns, uint64 Elevators, uint64 Floors) public\r\n    {\r\n        Components memory m;\r\n        m.componentId = msg.sender;\r\n        m.Shafts = Elevators;\r\n        m.Controllers = Batteries;\r\n        m.Doors = (Elevators * 2) + (Floors * 2);\r\n        m.Buttons = (Elevators * 8) + (Columns * 16);\r\n        m.Displays = Elevators;\r\n\r\n        componentsCount++;\r\n        components.push(m);\r\n        // Get the order details by orderNumber call\r\n\r\n    }\r\n}",
  "sourcePath": "C:\\Users\\tardi\\Rocket_Elevators_Smart_Contracts\\contracts\\ProjectOffice.sol",
  "compiler": {
    "name": "solc",
    "version": "0.5.16+commit.9c3226ce.Emscripten.clang"
  },
  "schemaVersion": "3.3.2",
  "updatedAt": "2020-12-09T14:26:46.489Z",
  "networkType": "ethereum",
  "devdoc": {
    "methods": {}
  },
  "userdoc": {
    "methods": {}
  }
}