{
  "contractName": "ProjectOffice",
  "abi": [
    {
      "inputs": [
        {
          "internalType": "address",
          "name": "request",
          "type": "address"
        }
      ],
      "payable": false,
      "stateMutability": "nonpayable",
      "type": "constructor"
    },
    {
      "constant": true,
      "inputs": [],
      "name": "componentsCount",
      "outputs": [
        {
          "internalType": "uint256",
          "name": "",
          "type": "uint256"
        }
      ],
      "payable": false,
      "stateMutability": "view",
      "type": "function"
    },
    {
      "constant": true,
      "inputs": [
        {
          "internalType": "uint256",
          "name": "index",
          "type": "uint256"
        }
      ],
      "name": "getComponents",
      "outputs": [
        {
          "internalType": "address",
          "name": "",
          "type": "address"
        },
        {
          "internalType": "uint64",
          "name": "",
          "type": "uint64"
        },
        {
          "internalType": "uint64",
          "name": "",
          "type": "uint64"
        },
        {
          "internalType": "uint64",
          "name": "",
          "type": "uint64"
        },
        {
          "internalType": "uint64",
          "name": "",
          "type": "uint64"
        },
        {
          "internalType": "uint64",
          "name": "",
          "type": "uint64"
        }
      ],
      "payable": false,
      "stateMutability": "view",
      "type": "function"
    },
    {
      "constant": true,
      "inputs": [],
      "name": "getComponentsCount",
      "outputs": [
        {
          "internalType": "uint256",
          "name": "",
          "type": "uint256"
        }
      ],
      "payable": false,
      "stateMutability": "view",
      "type": "function"
    },
    {
      "constant": false,
      "inputs": [
        {
          "internalType": "uint64",
          "name": "Batteries",
          "type": "uint64"
        },
        {
          "internalType": "uint64",
          "name": "Columns",
          "type": "uint64"
        },
        {
          "internalType": "uint64",
          "name": "Elevators",
          "type": "uint64"
        },
        {
          "internalType": "uint64",
          "name": "Floors",
          "type": "uint64"
        }
      ],
      "name": "addComponents",
      "outputs": [],
      "payable": false,
      "stateMutability": "nonpayable",
      "type": "function"
    }
  ],
  "bytecode": "0x6080604052600060025534801561001557600080fd5b50604051610ff6380380610ff683398181016040526100379190810190610821565b61003f61078e565b61004761078e565b61004f61078e565b83836000019073ffffffffffffffffffffffffffffffffffffffff16908173ffffffffffffffffffffffffffffffffffffffff16815250506001836040019067ffffffffffffffff16908167ffffffffffffffff16815250506002836020019067ffffffffffffffff16908167ffffffffffffffff16815250506003836060019067ffffffffffffffff16908167ffffffffffffffff16815250506004836080019067ffffffffffffffff16908167ffffffffffffffff168152505060058360a0019067ffffffffffffffff16908167ffffffffffffffff168152505083826000019073ffffffffffffffffffffffffffffffffffffffff16908173ffffffffffffffffffffffffffffffffffffffff16815250506005826040019067ffffffffffffffff16908167ffffffffffffffff16815250506004826020019067ffffffffffffffff16908167ffffffffffffffff16815250506003826060019067ffffffffffffffff16908167ffffffffffffffff16815250506002826080019067ffffffffffffffff16908167ffffffffffffffff168152505060018260a0019067ffffffffffffffff16908167ffffffffffffffff168152505083816000019073ffffffffffffffffffffffffffffffffffffffff16908173ffffffffffffffffffffffffffffffffffffffff16815250506002816040019067ffffffffffffffff16908167ffffffffffffffff16815250506004816020019067ffffffffffffffff16908167ffffffffffffffff16815250506001816060019067ffffffffffffffff16908167ffffffffffffffff16815250506005816080019067ffffffffffffffff16908167ffffffffffffffff168152505060038160a0019067ffffffffffffffff16908167ffffffffffffffff16815250506002600081548092919060010191905055506002600081548092919060010191905055506002600081548092919060010191905055506001839080600181540180825580915050906001820390600052602060002090600202016000909192909190915060008201518160000160006101000a81548173ffffffffffffffffffffffffffffffffffffffff021916908373ffffffffffffffffffffffffffffffffffffffff16021790555060208201518160000160146101000a81548167ffffffffffffffff021916908367ffffffffffffffff16021790555060408201518160010160006101000a81548167ffffffffffffffff021916908367ffffffffffffffff16021790555060608201518160010160086101000a81548167ffffffffffffffff021916908367ffffffffffffffff16021790555060808201518160010160106101000a81548167ffffffffffffffff021916908367ffffffffffffffff16021790555060a08201518160010160186101000a81548167ffffffffffffffff021916908367ffffffffffffffff1602179055505050506001829080600181540180825580915050906001820390600052602060002090600202016000909192909190915060008201518160000160006101000a81548173ffffffffffffffffffffffffffffffffffffffff021916908373ffffffffffffffffffffffffffffffffffffffff16021790555060208201518160000160146101000a81548167ffffffffffffffff021916908367ffffffffffffffff16021790555060408201518160010160006101000a81548167ffffffffffffffff021916908367ffffffffffffffff16021790555060608201518160010160086101000a81548167ffffffffffffffff021916908367ffffffffffffffff16021790555060808201518160010160106101000a81548167ffffffffffffffff021916908367ffffffffffffffff16021790555060a08201518160010160186101000a81548167ffffffffffffffff021916908367ffffffffffffffff1602179055505050506001819080600181540180825580915050906001820390600052602060002090600202016000909192909190915060008201518160000160006101000a81548173ffffffffffffffffffffffffffffffffffffffff021916908373ffffffffffffffffffffffffffffffffffffffff16021790555060208201518160000160146101000a81548167ffffffffffffffff021916908367ffffffffffffffff16021790555060408201518160010160006101000a81548167ffffffffffffffff021916908367ffffffffffffffff16021790555060608201518160010160086101000a81548167ffffffffffffffff021916908367ffffffffffffffff16021790555060808201518160010160106101000a81548167ffffffffffffffff021916908367ffffffffffffffff16021790555060a08201518160010160186101000a81548167ffffffffffffffff021916908367ffffffffffffffff160217905550505050836000806101000a81548173ffffffffffffffffffffffffffffffffffffffff021916908373ffffffffffffffffffffffffffffffffffffffff16021790555050505050610893565b6040518060c00160405280600073ffffffffffffffffffffffffffffffffffffffff168152602001600067ffffffffffffffff168152602001600067ffffffffffffffff168152602001600067ffffffffffffffff168152602001600067ffffffffffffffff168152602001600067ffffffffffffffff1681525090565b60008151905061081b8161087c565b92915050565b60006020828403121561083357600080fd5b60006108418482850161080c565b91505092915050565b60006108558261085c565b9050919050565b600073ffffffffffffffffffffffffffffffffffffffff82169050919050565b6108858161084a565b811461089057600080fd5b50565b610754806108a26000396000f3fe608060405234801561001057600080fd5b506004361061004c5760003560e01c80633d61f8011461005157806352011f181461006d5780637dcf58571461008b578063ec010302146100c0575b600080fd5b61006b60048036036100669190810190610587565b6100de565b005b61007561034a565b6040516100829190610678565b60405180910390f35b6100a560048036036100a0919081019061055e565b610350565b6040516100b796959493929190610617565b60405180910390f35b6100c86104ac565b6040516100d59190610678565b60405180910390f35b6100e66104b6565b33816000019073ffffffffffffffffffffffffffffffffffffffff16908173ffffffffffffffffffffffffffffffffffffffff168152505082816040019067ffffffffffffffff16908167ffffffffffffffff168152505084816020019067ffffffffffffffff16908167ffffffffffffffff1681525050600282026002840201816060019067ffffffffffffffff16908167ffffffffffffffff1681525050601084026008840201816080019067ffffffffffffffff16908167ffffffffffffffff1681525050828160a0019067ffffffffffffffff16908167ffffffffffffffff16815250506002600081548092919060010191905055506001819080600181540180825580915050906001820390600052602060002090600202016000909192909190915060008201518160000160006101000a81548173ffffffffffffffffffffffffffffffffffffffff021916908373ffffffffffffffffffffffffffffffffffffffff16021790555060208201518160000160146101000a81548167ffffffffffffffff021916908367ffffffffffffffff16021790555060408201518160010160006101000a81548167ffffffffffffffff021916908367ffffffffffffffff16021790555060608201518160010160086101000a81548167ffffffffffffffff021916908367ffffffffffffffff16021790555060808201518160010160106101000a81548167ffffffffffffffff021916908367ffffffffffffffff16021790555060a08201518160010160186101000a81548167ffffffffffffffff021916908367ffffffffffffffff1602179055505050505050505050565b60025481565b6000806000806000806001878154811061036657fe5b906000526020600020906002020160000160009054906101000a900473ffffffffffffffffffffffffffffffffffffffff16600188815481106103a557fe5b906000526020600020906002020160000160149054906101000a900467ffffffffffffffff16600189815481106103d857fe5b906000526020600020906002020160010160009054906101000a900467ffffffffffffffff1660018a8154811061040b57fe5b906000526020600020906002020160010160089054906101000a900467ffffffffffffffff1660018b8154811061043e57fe5b906000526020600020906002020160010160109054906101000a900467ffffffffffffffff1660018c8154811061047157fe5b906000526020600020906002020160010160189054906101000a900467ffffffffffffffff1695509550955095509550955091939550919395565b6000600254905090565b6040518060c00160405280600073ffffffffffffffffffffffffffffffffffffffff168152602001600067ffffffffffffffff168152602001600067ffffffffffffffff168152602001600067ffffffffffffffff168152602001600067ffffffffffffffff168152602001600067ffffffffffffffff1681525090565b600081359050610543816106e3565b92915050565b600081359050610558816106fa565b92915050565b60006020828403121561057057600080fd5b600061057e84828501610534565b91505092915050565b6000806000806080858703121561059d57600080fd5b60006105ab87828801610549565b94505060206105bc87828801610549565b93505060406105cd87828801610549565b92505060606105de87828801610549565b91505092959194509250565b6105f381610693565b82525050565b610602816106c5565b82525050565b610611816106cf565b82525050565b600060c08201905061062c60008301896105ea565b6106396020830188610608565b6106466040830187610608565b6106536060830186610608565b6106606080830185610608565b61066d60a0830184610608565b979650505050505050565b600060208201905061068d60008301846105f9565b92915050565b600061069e826106a5565b9050919050565b600073ffffffffffffffffffffffffffffffffffffffff82169050919050565b6000819050919050565b600067ffffffffffffffff82169050919050565b6106ec816106c5565b81146106f757600080fd5b50565b610703816106cf565b811461070e57600080fd5b5056fea365627a7a723158206d8c04b50548886e88dda4c9ec9ea54ce886a8485a50d30ca4bafa20667b0af66c6578706572696d656e74616cf564736f6c63430005100040",
  "source": "pragma solidity >=0.5.0 <0.8.0;\r\npragma experimental ABIEncoderV2;\r\n//SPDX-License-Identifier: MIT\r\ncontract ProjectOffice {\r\n\r\n    address requester;\r\n\r\n    struct Components {\r\n        address componentId;\r\n        uint64 Controllers;\r\n        uint64 Shafts;\r\n        uint64 Doors;\r\n        uint64 Buttons;\r\n        uint64 Displays;\r\n    }\r\n\r\n    Components[] components;\r\n\r\n    uint public componentsCount = 0;\r\n\r\n    function getComponents(uint index) public view returns (address, uint64, uint64, uint64, uint64, uint64){\r\n        return (components[index].componentId, components[index].Controllers, components[index].Shafts,components[index].Doors,components[index].Buttons, components[index].Displays);\r\n    }\r\n\r\n    function getComponentsCount() public view returns (uint){\r\n        return componentsCount;\r\n    }\r\n\r\n    constructor(address request) public {\r\n\r\n        Components memory m;\r\n        Components memory n;\r\n        Components memory x;\r\n\r\n        m.componentId = request;\r\n        m.Shafts = 1;\r\n        m.Controllers = 2;\r\n        m.Doors = 3;\r\n        m.Buttons = 4;\r\n        m.Displays = 5;\r\n\r\n        n.componentId = request;\r\n        n.Shafts = 5;\r\n        n.Controllers = 4;\r\n        n.Doors = 3;\r\n        n.Buttons = 2;\r\n        n.Displays = 1;\r\n\r\n        x.componentId = request;\r\n        x.Shafts = 2;\r\n        x.Controllers = 4;\r\n        x.Doors = 1;\r\n        x.Buttons = 5;\r\n        x.Displays = 3;\r\n\r\n\r\n        componentsCount++;\r\n        componentsCount++;\r\n        componentsCount++;\r\n        \r\n        components.push(m);\r\n        components.push(n);\r\n        components.push(x);\r\n\r\n        requester = request;\r\n    }\r\n\r\n    function addComponents(uint64 Batteries, uint64 Columns, uint64 Elevators, uint64 Floors) public\r\n    {\r\n        Components memory m;\r\n        m.componentId = msg.sender;\r\n        m.Shafts = Elevators;\r\n        m.Controllers = Batteries;\r\n        m.Doors = (Elevators * 2) + (Floors * 2);\r\n        m.Buttons = (Elevators * 8) + (Columns * 16);\r\n        m.Displays = Elevators;\r\n\r\n        componentsCount++;\r\n        components.push(m);\r\n\r\n\r\n    }\r\n}",
  "sourcePath": "C:/Users/tardi/Rocket_Elevators_Smart_Contracts/contracts/ProjectOffice.sol",
  "compiler": {
    "name": "solc",
    "version": "0.5.16+commit.9c3226ce.Emscripten.clang"
  },
  "schemaVersion": "3.3.2",
  "updatedAt": "2020-12-10T19:41:18.455Z",
  "networkType": "ethereum",
  "devdoc": {
    "methods": {}
  },
  "userdoc": {
    "methods": {}
  }
}